{
	"SimpleStorage.sol": {
		"SimpleStorage": {
			"abi": [
				{
					"anonymous": false,
					"inputs": [
						{
							"indexed": false,
							"internalType": "uint256",
							"name": "newNumber",
							"type": "uint256"
						}
					],
					"name": "NumberUpdated",
					"type": "event"
				},
				{
					"inputs": [],
					"name": "activateContract",
					"outputs": [],
					"stateMutability": "nonpayable",
					"type": "function"
				},
				{
					"inputs": [
						{
							"internalType": "uint256",
							"name": "_number",
							"type": "uint256"
						}
					],
					"name": "addFavoriteNumber",
					"outputs": [],
					"stateMutability": "nonpayable",
					"type": "function"
				},
				{
					"inputs": [
						{
							"internalType": "string",
							"name": "_name",
							"type": "string"
						},
						{
							"internalType": "uint256",
							"name": "_favoriteNumber",
							"type": "uint256"
						}
					],
					"name": "addPerson",
					"outputs": [],
					"stateMutability": "nonpayable",
					"type": "function"
				},
				{
					"inputs": [],
					"name": "callInternalFunction",
					"outputs": [
						{
							"internalType": "string",
							"name": "",
							"type": "string"
						}
					],
					"stateMutability": "pure",
					"type": "function"
				},
				{
					"inputs": [],
					"name": "deactivateContract",
					"outputs": [],
					"stateMutability": "nonpayable",
					"type": "function"
				},
				{
					"inputs": [],
					"name": "externalFunction",
					"outputs": [
						{
							"internalType": "string",
							"name": "",
							"type": "string"
						}
					],
					"stateMutability": "pure",
					"type": "function"
				},
				{
					"inputs": [
						{
							"internalType": "uint256",
							"name": "",
							"type": "uint256"
						}
					],
					"name": "favoriteNumbers",
					"outputs": [
						{
							"internalType": "uint256",
							"name": "",
							"type": "uint256"
						}
					],
					"stateMutability": "view",
					"type": "function"
				},
				{
					"inputs": [],
					"name": "getFavoriteNumber",
					"outputs": [
						{
							"internalType": "uint256",
							"name": "",
							"type": "uint256"
						}
					],
					"stateMutability": "view",
					"type": "function"
				},
				{
					"inputs": [
						{
							"internalType": "string",
							"name": "_username",
							"type": "string"
						}
					],
					"name": "greetUser",
					"outputs": [
						{
							"internalType": "string",
							"name": "",
							"type": "string"
						}
					],
					"stateMutability": "pure",
					"type": "function"
				},
				{
					"inputs": [],
					"name": "isActive",
					"outputs": [
						{
							"internalType": "bool",
							"name": "",
							"type": "bool"
						}
					],
					"stateMutability": "view",
					"type": "function"
				},
				{
					"inputs": [
						{
							"internalType": "uint256",
							"name": "_compareValue",
							"type": "uint256"
						}
					],
					"name": "isGreaterThan",
					"outputs": [
						{
							"internalType": "bool",
							"name": "",
							"type": "bool"
						}
					],
					"stateMutability": "view",
					"type": "function"
				},
				{
					"inputs": [
						{
							"internalType": "string",
							"name": "",
							"type": "string"
						}
					],
					"name": "nameToFavoriteNumber",
					"outputs": [
						{
							"internalType": "uint256",
							"name": "",
							"type": "uint256"
						}
					],
					"stateMutability": "view",
					"type": "function"
				},
				{
					"inputs": [],
					"name": "neverAFavoriteNumber",
					"outputs": [
						{
							"internalType": "uint256",
							"name": "",
							"type": "uint256"
						}
					],
					"stateMutability": "view",
					"type": "function"
				},
				{
					"inputs": [
						{
							"internalType": "uint256",
							"name": "",
							"type": "uint256"
						}
					],
					"name": "people",
					"outputs": [
						{
							"internalType": "string",
							"name": "name",
							"type": "string"
						},
						{
							"internalType": "uint256",
							"name": "favoriteNumber",
							"type": "uint256"
						}
					],
					"stateMutability": "view",
					"type": "function"
				},
				{
					"inputs": [],
					"name": "state",
					"outputs": [
						{
							"internalType": "enum SimpleStorage.ContractState",
							"name": "",
							"type": "uint8"
						}
					],
					"stateMutability": "view",
					"type": "function"
				},
				{
					"inputs": [
						{
							"internalType": "uint256",
							"name": "_favoriteNumber",
							"type": "uint256"
						}
					],
					"name": "storeNumber",
					"outputs": [],
					"stateMutability": "nonpayable",
					"type": "function"
				},
				{
					"inputs": [],
					"name": "sumToFavoriteNumber",
					"outputs": [
						{
							"internalType": "uint256",
							"name": "",
							"type": "uint256"
						}
					],
					"stateMutability": "view",
					"type": "function"
				},
				{
					"inputs": [],
					"name": "testExternalFunction",
					"outputs": [
						{
							"internalType": "string",
							"name": "",
							"type": "string"
						}
					],
					"stateMutability": "view",
					"type": "function"
				},
				{
					"inputs": [
						{
							"internalType": "string",
							"name": "_newName",
							"type": "string"
						}
					],
					"name": "updateUsername",
					"outputs": [
						{
							"internalType": "string",
							"name": "",
							"type": "string"
						}
					],
					"stateMutability": "pure",
					"type": "function"
				}
			],
			"devdoc": {
				"kind": "dev",
				"methods": {},
				"version": 1
			},
			"evm": {
				"assembly": "    /* \"SimpleStorage.sol\":58:3195  contract SimpleStorage {... */\n  mstore(0x40, 0x80)\n  callvalue\n  dup1\n  iszero\n  tag_1\n  jumpi\n  0x00\n  dup1\n  revert\ntag_1:\n  pop\n  dataSize(sub_0)\n  dup1\n  dataOffset(sub_0)\n  0x00\n  codecopy\n  0x00\n  return\nstop\n\nsub_0: assembly {\n        /* \"SimpleStorage.sol\":58:3195  contract SimpleStorage {... */\n      mstore(0x40, 0x80)\n      callvalue\n      dup1\n      iszero\n      tag_1\n      jumpi\n      0x00\n      dup1\n      revert\n    tag_1:\n      pop\n      jumpi(tag_2, lt(calldatasize, 0x04))\n      shr(0xe0, calldataload(0x00))\n      dup1\n      0x9e7a13ad\n      gt\n      tag_22\n      jumpi\n      dup1\n      0xc19d93fb\n      gt\n      tag_23\n      jumpi\n      dup1\n      0xc19d93fb\n      eq\n      tag_17\n      jumpi\n      dup1\n      0xc96cea70\n      eq\n      tag_18\n      jumpi\n      dup1\n      0xcb6a33f8\n      eq\n      tag_19\n      jumpi\n      dup1\n      0xdb5ecc03\n      eq\n      tag_20\n      jumpi\n      dup1\n      0xe0819c9a\n      eq\n      tag_21\n      jumpi\n      jump(tag_2)\n    tag_23:\n      dup1\n      0x9e7a13ad\n      eq\n      tag_12\n      jumpi\n      dup1\n      0xa621d15e\n      eq\n      tag_13\n      jumpi\n      dup1\n      0xa7e1a364\n      eq\n      tag_14\n      jumpi\n      dup1\n      0xb6339418\n      eq\n      tag_15\n      jumpi\n      dup1\n      0xbca353be\n      eq\n      tag_16\n      jumpi\n      jump(tag_2)\n    tag_22:\n      dup1\n      0x6ef7b0a9\n      gt\n      tag_24\n      jumpi\n      dup1\n      0x6ef7b0a9\n      eq\n      tag_7\n      jumpi\n      dup1\n      0x6f760f41\n      eq\n      tag_8\n      jumpi\n      dup1\n      0x8701f8ca\n      eq\n      tag_9\n      jumpi\n      dup1\n      0x8bab8dd5\n      eq\n      tag_10\n      jumpi\n      dup1\n      0x8fda356d\n      eq\n      tag_11\n      jumpi\n      jump(tag_2)\n    tag_24:\n      dup1\n      0x0cd2636e\n      eq\n      tag_3\n      jumpi\n      dup1\n      0x22f3e2d4\n      eq\n      tag_4\n      jumpi\n      dup1\n      0x29cd1d96\n      eq\n      tag_5\n      jumpi\n      dup1\n      0x3a32b549\n      eq\n      tag_6\n      jumpi\n    tag_2:\n      0x00\n      dup1\n      revert\n        /* \"SimpleStorage.sol\":1471:1672  function sumToFavoriteNumber() public view returns (uint256) {... */\n    tag_3:\n      tag_25\n      tag_26\n      jump\t// in\n    tag_25:\n      mload(0x40)\n      tag_27\n      swap2\n      swap1\n      tag_28\n      jump\t// in\n    tag_27:\n      mload(0x40)\n      dup1\n      swap2\n      sub\n      swap1\n      return\n        /* \"SimpleStorage.sol\":2588:2688  function isActive() public view returns (bool) {... */\n    tag_4:\n      tag_29\n      tag_30\n      jump\t// in\n    tag_29:\n      mload(0x40)\n      tag_31\n      swap2\n      swap1\n      tag_32\n      jump\t// in\n    tag_31:\n      mload(0x40)\n      dup1\n      swap2\n      sub\n      swap1\n      return\n        /* \"SimpleStorage.sol\":159:191  uint256[] public favoriteNumbers */\n    tag_5:\n      tag_33\n      0x04\n      dup1\n      calldatasize\n      sub\n      dup2\n      add\n      swap1\n      tag_34\n      swap2\n      swap1\n      tag_35\n      jump\t// in\n    tag_34:\n      tag_36\n      jump\t// in\n    tag_33:\n      mload(0x40)\n      tag_37\n      swap2\n      swap1\n      tag_28\n      jump\t// in\n    tag_37:\n      mload(0x40)\n      dup1\n      swap2\n      sub\n      swap1\n      return\n        /* \"SimpleStorage.sol\":1913:2042  function externalFunction() external pure returns (string memory) {... */\n    tag_6:\n      tag_38\n      tag_39\n      jump\t// in\n    tag_38:\n      mload(0x40)\n      tag_40\n      swap2\n      swap1\n      tag_41\n      jump\t// in\n    tag_40:\n      mload(0x40)\n      dup1\n      swap2\n      sub\n      swap1\n      return\n        /* \"SimpleStorage.sol\":249:284  uint256 public neverAFavoriteNumber */\n    tag_7:\n      tag_42\n      tag_43\n      jump\t// in\n    tag_42:\n      mload(0x40)\n      tag_44\n      swap2\n      swap1\n      tag_28\n      jump\t// in\n    tag_44:\n      mload(0x40)\n      dup1\n      swap2\n      sub\n      swap1\n      return\n        /* \"SimpleStorage.sol\":2272:2406  function addPerson(string memory _name, uint256 _favoriteNumber) public {... */\n    tag_8:\n      tag_45\n      0x04\n      dup1\n      calldatasize\n      sub\n      dup2\n      add\n      swap1\n      tag_46\n      swap2\n      swap1\n      tag_47\n      jump\t// in\n    tag_46:\n      tag_48\n      jump\t// in\n    tag_45:\n      stop\n        /* \"SimpleStorage.sol\":1797:1907  function callInternalFunction() public pure returns (string memory) {... */\n    tag_9:\n      tag_49\n      tag_50\n      jump\t// in\n    tag_49:\n      mload(0x40)\n      tag_51\n      swap2\n      swap1\n      tag_41\n      jump\t// in\n    tag_51:\n      mload(0x40)\n      dup1\n      swap2\n      sub\n      swap1\n      return\n        /* \"SimpleStorage.sol\":328:382  mapping(string => uint256) public nameToFavoriteNumber */\n    tag_10:\n      tag_52\n      0x04\n      dup1\n      calldatasize\n      sub\n      dup2\n      add\n      swap1\n      tag_53\n      swap2\n      swap1\n      tag_54\n      jump\t// in\n    tag_53:\n      tag_55\n      jump\t// in\n    tag_52:\n      mload(0x40)\n      tag_56\n      swap2\n      swap1\n      tag_28\n      jump\t// in\n    tag_56:\n      mload(0x40)\n      dup1\n      swap2\n      sub\n      swap1\n      return\n        /* \"SimpleStorage.sol\":2412:2492  function activateContract() public {... */\n    tag_11:\n      tag_57\n      tag_58\n      jump\t// in\n    tag_57:\n      stop\n        /* \"SimpleStorage.sol\":623:645  Person[] public people */\n    tag_12:\n      tag_59\n      0x04\n      dup1\n      calldatasize\n      sub\n      dup2\n      add\n      swap1\n      tag_60\n      swap2\n      swap1\n      tag_35\n      jump\t// in\n    tag_60:\n      tag_61\n      jump\t// in\n    tag_59:\n      mload(0x40)\n      tag_62\n      swap3\n      swap2\n      swap1\n      tag_63\n      jump\t// in\n    tag_62:\n      mload(0x40)\n      dup1\n      swap2\n      sub\n      swap1\n      return\n        /* \"SimpleStorage.sol\":1159:1256  function getFavoriteNumber() public view returns (uint256) {... */\n    tag_13:\n      tag_64\n      tag_65\n      jump\t// in\n    tag_64:\n      mload(0x40)\n      tag_66\n      swap2\n      swap1\n      tag_28\n      jump\t// in\n    tag_66:\n      mload(0x40)\n      dup1\n      swap2\n      sub\n      swap1\n      return\n        /* \"SimpleStorage.sol\":2169:2266  function addFavoriteNumber(uint256 _number) public {... */\n    tag_14:\n      tag_67\n      0x04\n      dup1\n      calldatasize\n      sub\n      dup2\n      add\n      swap1\n      tag_68\n      swap2\n      swap1\n      tag_35\n      jump\t// in\n    tag_68:\n      tag_69\n      jump\t// in\n    tag_67:\n      stop\n        /* \"SimpleStorage.sol\":1006:1153  function storeNumber(uint256 _favoriteNumber) public {... */\n    tag_15:\n      tag_70\n      0x04\n      dup1\n      calldatasize\n      sub\n      dup2\n      add\n      swap1\n      tag_71\n      swap2\n      swap1\n      tag_35\n      jump\t// in\n    tag_71:\n      tag_72\n      jump\t// in\n    tag_70:\n      stop\n        /* \"SimpleStorage.sol\":2498:2582  function deactivateContract() public {... */\n    tag_16:\n      tag_73\n      tag_74\n      jump\t// in\n    tag_73:\n      stop\n        /* \"SimpleStorage.sol\":919:945  ContractState public state */\n    tag_17:\n      tag_75\n      tag_76\n      jump\t// in\n    tag_75:\n      mload(0x40)\n      tag_77\n      swap2\n      swap1\n      tag_78\n      jump\t// in\n    tag_77:\n      mload(0x40)\n      dup1\n      swap2\n      sub\n      swap1\n      return\n        /* \"SimpleStorage.sol\":2739:2948  function updateUsername(string memory _newName) public pure returns(string memory) {... */\n    tag_18:\n      tag_79\n      0x04\n      dup1\n      calldatasize\n      sub\n      dup2\n      add\n      swap1\n      tag_80\n      swap2\n      swap1\n      tag_54\n      jump\t// in\n    tag_80:\n      tag_81\n      jump\t// in\n    tag_79:\n      mload(0x40)\n      tag_82\n      swap2\n      swap1\n      tag_41\n      jump\t// in\n    tag_82:\n      mload(0x40)\n      dup1\n      swap2\n      sub\n      swap1\n      return\n        /* \"SimpleStorage.sol\":1262:1465  function isGreaterThan(uint256 _compareValue) public view returns(bool) {... */\n    tag_19:\n      tag_83\n      0x04\n      dup1\n      calldatasize\n      sub\n      dup2\n      add\n      swap1\n      tag_84\n      swap2\n      swap1\n      tag_35\n      jump\t// in\n    tag_84:\n      tag_85\n      jump\t// in\n    tag_83:\n      mload(0x40)\n      tag_86\n      swap2\n      swap1\n      tag_32\n      jump\t// in\n    tag_86:\n      mload(0x40)\n      dup1\n      swap2\n      sub\n      swap1\n      return\n        /* \"SimpleStorage.sol\":2998:3192  function greetUser(string calldata _username) public pure returns (string memory) {... */\n    tag_20:\n      tag_87\n      0x04\n      dup1\n      calldatasize\n      sub\n      dup2\n      add\n      swap1\n      tag_88\n      swap2\n      swap1\n      tag_89\n      jump\t// in\n    tag_88:\n      tag_90\n      jump\t// in\n    tag_87:\n      mload(0x40)\n      tag_91\n      swap2\n      swap1\n      tag_41\n      jump\t// in\n    tag_91:\n      mload(0x40)\n      dup1\n      swap2\n      sub\n      swap1\n      return\n        /* \"SimpleStorage.sol\":2048:2163  function testExternalFunction() public view returns (string memory) {... */\n    tag_21:\n      tag_92\n      tag_93\n      jump\t// in\n    tag_92:\n      mload(0x40)\n      tag_94\n      swap2\n      swap1\n      tag_41\n      jump\t// in\n    tag_94:\n      mload(0x40)\n      dup1\n      swap2\n      sub\n      swap1\n      return\n        /* \"SimpleStorage.sol\":1471:1672  function sumToFavoriteNumber() public view returns (uint256) {... */\n    tag_26:\n        /* \"SimpleStorage.sol\":1523:1530  uint256 */\n      0x00\n        /* \"SimpleStorage.sol\":1542:1553  uint256 sum */\n      dup1\n        /* \"SimpleStorage.sol\":1556:1557  0 */\n      0x00\n        /* \"SimpleStorage.sol\":1542:1557  uint256 sum = 0 */\n      swap1\n      pop\n        /* \"SimpleStorage.sol\":1572:1581  uint256 i */\n      0x00\n        /* \"SimpleStorage.sol\":1584:1585  1 */\n      0x01\n        /* \"SimpleStorage.sol\":1572:1585  uint256 i = 1 */\n      swap1\n      pop\n        /* \"SimpleStorage.sol\":1567:1646  for (uint256 i = 1; i <= favoriteNumber; i++) {... */\n    tag_96:\n        /* \"SimpleStorage.sol\":1592:1606  favoriteNumber */\n      sload(0x00)\n        /* \"SimpleStorage.sol\":1587:1588  i */\n      dup2\n        /* \"SimpleStorage.sol\":1587:1606  i <= favoriteNumber */\n      gt\n        /* \"SimpleStorage.sol\":1567:1646  for (uint256 i = 1; i <= favoriteNumber; i++) {... */\n      tag_97\n      jumpi\n        /* \"SimpleStorage.sol\":1634:1635  i */\n      dup1\n        /* \"SimpleStorage.sol\":1627:1635  sum += i */\n      dup3\n      tag_99\n      swap2\n      swap1\n      tag_100\n      jump\t// in\n    tag_99:\n      swap2\n      pop\n        /* \"SimpleStorage.sol\":1608:1611  i++ */\n      dup1\n      dup1\n      tag_101\n      swap1\n      tag_102\n      jump\t// in\n    tag_101:\n      swap2\n      pop\n      pop\n        /* \"SimpleStorage.sol\":1567:1646  for (uint256 i = 1; i <= favoriteNumber; i++) {... */\n      jump(tag_96)\n    tag_97:\n      pop\n        /* \"SimpleStorage.sol\":1662:1665  sum */\n      dup1\n        /* \"SimpleStorage.sol\":1655:1665  return sum */\n      swap2\n      pop\n      pop\n        /* \"SimpleStorage.sol\":1471:1672  function sumToFavoriteNumber() public view returns (uint256) {... */\n      swap1\n      jump\t// out\n        /* \"SimpleStorage.sol\":2588:2688  function isActive() public view returns (bool) {... */\n    tag_30:\n        /* \"SimpleStorage.sol\":2629:2633  bool */\n      0x00\n        /* \"SimpleStorage.sol\":2661:2681  ContractState.Active */\n      dup1\n        /* \"SimpleStorage.sol\":2652:2681  state == ContractState.Active */\n      0x01\n      dup2\n      gt\n      iszero\n      tag_104\n      jumpi\n      tag_105\n      tag_106\n      jump\t// in\n    tag_105:\n    tag_104:\n        /* \"SimpleStorage.sol\":2652:2657  state */\n      0x05\n      0x00\n      swap1\n      sload\n      swap1\n      0x0100\n      exp\n      swap1\n      div\n      0xff\n      and\n        /* \"SimpleStorage.sol\":2652:2681  state == ContractState.Active */\n      0x01\n      dup2\n      gt\n      iszero\n      tag_107\n      jumpi\n      tag_108\n      tag_106\n      jump\t// in\n    tag_108:\n    tag_107:\n      eq\n        /* \"SimpleStorage.sol\":2645:2681  return state == ContractState.Active */\n      swap1\n      pop\n        /* \"SimpleStorage.sol\":2588:2688  function isActive() public view returns (bool) {... */\n      swap1\n      jump\t// out\n        /* \"SimpleStorage.sol\":159:191  uint256[] public favoriteNumbers */\n    tag_36:\n      0x01\n      dup2\n      dup2\n      sload\n      dup2\n      lt\n      tag_109\n      jumpi\n      0x00\n      dup1\n      revert\n    tag_109:\n      swap1\n      0x00\n      mstore\n      keccak256(0x00, 0x20)\n      add\n      0x00\n      swap2\n      pop\n      swap1\n      pop\n      sload\n      dup2\n      jump\t// out\n        /* \"SimpleStorage.sol\":1913:2042  function externalFunction() external pure returns (string memory) {... */\n    tag_39:\n        /* \"SimpleStorage.sol\":1964:1977  string memory */\n      0x60\n        /* \"SimpleStorage.sol\":1989:2035  return \"This function is an external function\" */\n      mload(0x40)\n      dup1\n      0x60\n      add\n      0x40\n      mstore\n      dup1\n      0x25\n      dup2\n      mstore\n      0x20\n      add\n      data_907d0dba1fdcf9c5b2a93aa10c761a8e91611cd0f5c7cf0b6cb1a30c441ffad6\n      0x25\n      swap2\n      codecopy\n      swap1\n      pop\n        /* \"SimpleStorage.sol\":1913:2042  function externalFunction() external pure returns (string memory) {... */\n      swap1\n      jump\t// out\n        /* \"SimpleStorage.sol\":249:284  uint256 public neverAFavoriteNumber */\n    tag_43:\n      sload(0x02)\n      dup2\n      jump\t// out\n        /* \"SimpleStorage.sol\":2272:2406  function addPerson(string memory _name, uint256 _favoriteNumber) public {... */\n    tag_48:\n        /* \"SimpleStorage.sol\":2384:2399  _favoriteNumber */\n      dup1\n        /* \"SimpleStorage.sol\":2354:2374  nameToFavoriteNumber */\n      0x03\n        /* \"SimpleStorage.sol\":2375:2380  _name */\n      dup4\n        /* \"SimpleStorage.sol\":2354:2381  nameToFavoriteNumber[_name] */\n      mload(0x40)\n      tag_113\n      swap2\n      swap1\n      tag_114\n      jump\t// in\n    tag_113:\n      swap1\n      dup2\n      mstore\n      0x20\n      add\n      mload(0x40)\n      dup1\n      swap2\n      sub\n      swap1\n      keccak256\n        /* \"SimpleStorage.sol\":2354:2399  nameToFavoriteNumber[_name] = _favoriteNumber */\n      dup2\n      swap1\n      sstore\n      pop\n        /* \"SimpleStorage.sol\":2272:2406  function addPerson(string memory _name, uint256 _favoriteNumber) public {... */\n      pop\n      pop\n      jump\t// out\n        /* \"SimpleStorage.sol\":1797:1907  function callInternalFunction() public pure returns (string memory) {... */\n    tag_50:\n        /* \"SimpleStorage.sol\":1850:1863  string memory */\n      0x60\n        /* \"SimpleStorage.sol\":1882:1900  internalFunction() */\n      tag_116\n        /* \"SimpleStorage.sol\":1882:1898  internalFunction */\n      tag_117\n        /* \"SimpleStorage.sol\":1882:1900  internalFunction() */\n      jump\t// in\n    tag_116:\n        /* \"SimpleStorage.sol\":1875:1900  return internalFunction() */\n      swap1\n      pop\n        /* \"SimpleStorage.sol\":1797:1907  function callInternalFunction() public pure returns (string memory) {... */\n      swap1\n      jump\t// out\n        /* \"SimpleStorage.sol\":328:382  mapping(string => uint256) public nameToFavoriteNumber */\n    tag_55:\n      0x03\n      dup2\n      dup1\n      mload\n      0x20\n      dup2\n      add\n      dup3\n      add\n      dup1\n      mload\n      dup5\n      dup3\n      mstore\n      0x20\n      dup4\n      add\n      0x20\n      dup6\n      add\n      keccak256\n      dup2\n      dup4\n      mstore\n      dup1\n      swap6\n      pop\n      pop\n      pop\n      pop\n      pop\n      pop\n      0x00\n      swap2\n      pop\n      swap1\n      pop\n      sload\n      dup2\n      jump\t// out\n        /* \"SimpleStorage.sol\":2412:2492  function activateContract() public {... */\n    tag_58:\n        /* \"SimpleStorage.sol\":2465:2485  ContractState.Active */\n      0x00\n        /* \"SimpleStorage.sol\":2457:2462  state */\n      0x05\n      0x00\n        /* \"SimpleStorage.sol\":2457:2485  state = ContractState.Active */\n      0x0100\n      exp\n      dup2\n      sload\n      dup2\n      0xff\n      mul\n      not\n      and\n      swap1\n      dup4\n      0x01\n      dup2\n      gt\n      iszero\n      tag_119\n      jumpi\n      tag_120\n      tag_106\n      jump\t// in\n    tag_120:\n    tag_119:\n      mul\n      or\n      swap1\n      sstore\n      pop\n        /* \"SimpleStorage.sol\":2412:2492  function activateContract() public {... */\n      jump\t// out\n        /* \"SimpleStorage.sol\":623:645  Person[] public people */\n    tag_61:\n      0x04\n      dup2\n      dup2\n      sload\n      dup2\n      lt\n      tag_121\n      jumpi\n      0x00\n      dup1\n      revert\n    tag_121:\n      swap1\n      0x00\n      mstore\n      keccak256(0x00, 0x20)\n      swap1\n      0x02\n      mul\n      add\n      0x00\n      swap2\n      pop\n      swap1\n      pop\n      dup1\n      0x00\n      add\n      dup1\n      sload\n      tag_123\n      swap1\n      tag_124\n      jump\t// in\n    tag_123:\n      dup1\n      0x1f\n      add\n      0x20\n      dup1\n      swap2\n      div\n      mul\n      0x20\n      add\n      mload(0x40)\n      swap1\n      dup2\n      add\n      0x40\n      mstore\n      dup1\n      swap3\n      swap2\n      swap1\n      dup2\n      dup2\n      mstore\n      0x20\n      add\n      dup3\n      dup1\n      sload\n      tag_125\n      swap1\n      tag_124\n      jump\t// in\n    tag_125:\n      dup1\n      iszero\n      tag_126\n      jumpi\n      dup1\n      0x1f\n      lt\n      tag_127\n      jumpi\n      0x0100\n      dup1\n      dup4\n      sload\n      div\n      mul\n      dup4\n      mstore\n      swap2\n      0x20\n      add\n      swap2\n      jump(tag_126)\n    tag_127:\n      dup3\n      add\n      swap2\n      swap1\n      0x00\n      mstore\n      keccak256(0x00, 0x20)\n      swap1\n    tag_128:\n      dup2\n      sload\n      dup2\n      mstore\n      swap1\n      0x01\n      add\n      swap1\n      0x20\n      add\n      dup1\n      dup4\n      gt\n      tag_128\n      jumpi\n      dup3\n      swap1\n      sub\n      0x1f\n      and\n      dup3\n      add\n      swap2\n    tag_126:\n      pop\n      pop\n      pop\n      pop\n      pop\n      swap1\n      dup1\n      0x01\n      add\n      sload\n      swap1\n      pop\n      dup3\n      jump\t// out\n        /* \"SimpleStorage.sol\":1159:1256  function getFavoriteNumber() public view returns (uint256) {... */\n    tag_65:\n        /* \"SimpleStorage.sol\":1209:1216  uint256 */\n      0x00\n        /* \"SimpleStorage.sol\":1235:1249  favoriteNumber */\n      dup1\n      sload\n        /* \"SimpleStorage.sol\":1228:1249  return favoriteNumber */\n      swap1\n      pop\n        /* \"SimpleStorage.sol\":1159:1256  function getFavoriteNumber() public view returns (uint256) {... */\n      swap1\n      jump\t// out\n        /* \"SimpleStorage.sol\":2169:2266  function addFavoriteNumber(uint256 _number) public {... */\n    tag_69:\n        /* \"SimpleStorage.sol\":2230:2245  favoriteNumbers */\n      0x01\n        /* \"SimpleStorage.sol\":2251:2258  _number */\n      dup2\n        /* \"SimpleStorage.sol\":2230:2259  favoriteNumbers.push(_number) */\n      swap1\n      dup1\n      0x01\n      dup2\n      sload\n      add\n      dup1\n      dup3\n      sstore\n      dup1\n      swap2\n      pop\n      pop\n      0x01\n      swap1\n      sub\n      swap1\n      0x00\n      mstore\n      keccak256(0x00, 0x20)\n      add\n      0x00\n      swap1\n      swap2\n      swap1\n      swap2\n      swap1\n      swap2\n      pop\n      sstore\n        /* \"SimpleStorage.sol\":2169:2266  function addFavoriteNumber(uint256 _number) public {... */\n      pop\n      jump\t// out\n        /* \"SimpleStorage.sol\":1006:1153  function storeNumber(uint256 _favoriteNumber) public {... */\n    tag_72:\n        /* \"SimpleStorage.sol\":1086:1101  _favoriteNumber */\n      dup1\n        /* \"SimpleStorage.sol\":1069:1083  favoriteNumber */\n      0x00\n        /* \"SimpleStorage.sol\":1069:1101  favoriteNumber = _favoriteNumber */\n      dup2\n      swap1\n      sstore\n      pop\n        /* \"SimpleStorage.sol\":1116:1146  NumberUpdated(_favoriteNumber) */\n      0x939f2783f4b99373bd9b6912aff8f7316ea141b98eb02e47c8a96bdae0d654b3\n        /* \"SimpleStorage.sol\":1130:1145  _favoriteNumber */\n      dup2\n        /* \"SimpleStorage.sol\":1116:1146  NumberUpdated(_favoriteNumber) */\n      mload(0x40)\n      tag_133\n      swap2\n      swap1\n      tag_28\n      jump\t// in\n    tag_133:\n      mload(0x40)\n      dup1\n      swap2\n      sub\n      swap1\n      log1\n        /* \"SimpleStorage.sol\":1006:1153  function storeNumber(uint256 _favoriteNumber) public {... */\n      pop\n      jump\t// out\n        /* \"SimpleStorage.sol\":2498:2582  function deactivateContract() public {... */\n    tag_74:\n        /* \"SimpleStorage.sol\":2553:2575  ContractState.Inactive */\n      0x01\n        /* \"SimpleStorage.sol\":2545:2550  state */\n      0x05\n      0x00\n        /* \"SimpleStorage.sol\":2545:2575  state = ContractState.Inactive */\n      0x0100\n      exp\n      dup2\n      sload\n      dup2\n      0xff\n      mul\n      not\n      and\n      swap1\n      dup4\n      0x01\n      dup2\n      gt\n      iszero\n      tag_135\n      jumpi\n      tag_136\n      tag_106\n      jump\t// in\n    tag_136:\n    tag_135:\n      mul\n      or\n      swap1\n      sstore\n      pop\n        /* \"SimpleStorage.sol\":2498:2582  function deactivateContract() public {... */\n      jump\t// out\n        /* \"SimpleStorage.sol\":919:945  ContractState public state */\n    tag_76:\n      0x05\n      0x00\n      swap1\n      sload\n      swap1\n      0x0100\n      exp\n      swap1\n      div\n      0xff\n      and\n      dup2\n      jump\t// out\n        /* \"SimpleStorage.sol\":2739:2948  function updateUsername(string memory _newName) public pure returns(string memory) {... */\n    tag_81:\n        /* \"SimpleStorage.sol\":2807:2820  string memory */\n      0x60\n        /* \"SimpleStorage.sol\":2899:2916  _newName = \"kusi\" */\n      mload(0x40)\n      dup1\n      0x40\n      add\n      0x40\n      mstore\n      dup1\n      0x04\n      dup2\n      mstore\n      0x20\n      add\n      0x6b75736900000000000000000000000000000000000000000000000000000000\n      dup2\n      mstore\n      pop\n      swap2\n      pop\n        /* \"SimpleStorage.sol\":2933:2941  _newName */\n      dup2\n        /* \"SimpleStorage.sol\":2926:2941  return _newName */\n      swap1\n      pop\n        /* \"SimpleStorage.sol\":2739:2948  function updateUsername(string memory _newName) public pure returns(string memory) {... */\n      swap2\n      swap1\n      pop\n      jump\t// out\n        /* \"SimpleStorage.sol\":1262:1465  function isGreaterThan(uint256 _compareValue) public view returns(bool) {... */\n    tag_85:\n        /* \"SimpleStorage.sol\":1328:1332  bool */\n      0x00\n        /* \"SimpleStorage.sol\":1365:1378  _compareValue */\n      dup2\n        /* \"SimpleStorage.sol\":1348:1362  favoriteNumber */\n      sload(0x00)\n        /* \"SimpleStorage.sol\":1348:1378  favoriteNumber > _compareValue */\n      gt\n        /* \"SimpleStorage.sol\":1344:1459  if (favoriteNumber > _compareValue) {... */\n      iszero\n      tag_139\n      jumpi\n        /* \"SimpleStorage.sol\":1401:1405  true */\n      0x01\n        /* \"SimpleStorage.sol\":1394:1405  return true */\n      swap1\n      pop\n      jump(tag_138)\n        /* \"SimpleStorage.sol\":1344:1459  if (favoriteNumber > _compareValue) {... */\n    tag_139:\n        /* \"SimpleStorage.sol\":1443:1448  false */\n      0x00\n        /* \"SimpleStorage.sol\":1436:1448  return false */\n      swap1\n      pop\n        /* \"SimpleStorage.sol\":1262:1465  function isGreaterThan(uint256 _compareValue) public view returns(bool) {... */\n    tag_138:\n      swap2\n      swap1\n      pop\n      jump\t// out\n        /* \"SimpleStorage.sol\":2998:3192  function greetUser(string calldata _username) public pure returns (string memory) {... */\n    tag_90:\n        /* \"SimpleStorage.sol\":3065:3078  string memory */\n      0x60\n        /* \"SimpleStorage.sol\":3090:3112  string memory sayHello */\n      0x00\n        /* \"SimpleStorage.sol\":3149:3158  _username */\n      dup4\n      dup4\n        /* \"SimpleStorage.sol\":3122:3159  abi.encodePacked(\"Hello \", _username) */\n      add(0x20, mload(0x40))\n      tag_142\n      swap3\n      swap2\n      swap1\n      tag_143\n      jump\t// in\n    tag_142:\n      mload(0x40)\n      0x20\n      dup2\n      dup4\n      sub\n      sub\n      dup2\n      mstore\n      swap1\n      0x40\n      mstore\n        /* \"SimpleStorage.sol\":3090:3160  string memory sayHello = string(abi.encodePacked(\"Hello \", _username)) */\n      swap1\n      pop\n        /* \"SimpleStorage.sol\":3177:3185  sayHello */\n      dup1\n        /* \"SimpleStorage.sol\":3170:3185  return sayHello */\n      swap2\n      pop\n      pop\n        /* \"SimpleStorage.sol\":2998:3192  function greetUser(string calldata _username) public pure returns (string memory) {... */\n      swap3\n      swap2\n      pop\n      pop\n      jump\t// out\n        /* \"SimpleStorage.sol\":2048:2163  function testExternalFunction() public view returns (string memory) {... */\n    tag_93:\n        /* \"SimpleStorage.sol\":2101:2114  string memory */\n      0x60\n        /* \"SimpleStorage.sol\":2133:2137  this */\n      address\n        /* \"SimpleStorage.sol\":2133:2154  this.externalFunction */\n      0xffffffffffffffffffffffffffffffffffffffff\n      and\n      0x3a32b549\n        /* \"SimpleStorage.sol\":2133:2156  this.externalFunction() */\n      mload(0x40)\n      dup2\n      0xffffffff\n      and\n      0xe0\n      shl\n      dup2\n      mstore\n      0x04\n      add\n      0x00\n      mload(0x40)\n      dup1\n      dup4\n      sub\n      dup2\n      dup7\n      gas\n      staticcall\n      iszero\n      dup1\n      iszero\n      tag_146\n      jumpi\n      returndatasize\n      0x00\n      dup1\n      returndatacopy\n      revert(0x00, returndatasize)\n    tag_146:\n      pop\n      pop\n      pop\n      pop\n      mload(0x40)\n      returndatasize\n      0x00\n      dup3\n      returndatacopy\n      returndatasize\n      not(0x1f)\n      0x1f\n      dup3\n      add\n      and\n      dup3\n      add\n      dup1\n      0x40\n      mstore\n      pop\n      dup2\n      add\n      swap1\n      tag_147\n      swap2\n      swap1\n      tag_148\n      jump\t// in\n    tag_147:\n        /* \"SimpleStorage.sol\":2126:2156  return this.externalFunction() */\n      swap1\n      pop\n        /* \"SimpleStorage.sol\":2048:2163  function testExternalFunction() public view returns (string memory) {... */\n      swap1\n      jump\t// out\n        /* \"SimpleStorage.sol\":1678:1791  function internalFunction() internal pure returns (string memory) {... */\n    tag_117:\n        /* \"SimpleStorage.sol\":1729:1742  string memory */\n      0x60\n        /* \"SimpleStorage.sol\":1754:1784  return \"I am learing solidity\" */\n      mload(0x40)\n      dup1\n      0x40\n      add\n      0x40\n      mstore\n      dup1\n      0x15\n      dup2\n      mstore\n      0x20\n      add\n      0x4920616d206c656172696e6720736f6c69646974790000000000000000000000\n      dup2\n      mstore\n      pop\n      swap1\n      pop\n        /* \"SimpleStorage.sol\":1678:1791  function internalFunction() internal pure returns (string memory) {... */\n      swap1\n      jump\t// out\n        /* \"#utility.yul\":7:84   */\n    tag_150:\n        /* \"#utility.yul\":44:51   */\n      0x00\n        /* \"#utility.yul\":73:78   */\n      dup2\n        /* \"#utility.yul\":62:78   */\n      swap1\n      pop\n        /* \"#utility.yul\":7:84   */\n      swap2\n      swap1\n      pop\n      jump\t// out\n        /* \"#utility.yul\":90:208   */\n    tag_151:\n        /* \"#utility.yul\":177:201   */\n      tag_192\n        /* \"#utility.yul\":195:200   */\n      dup2\n        /* \"#utility.yul\":177:201   */\n      tag_150\n      jump\t// in\n    tag_192:\n        /* \"#utility.yul\":172:175   */\n      dup3\n        /* \"#utility.yul\":165:202   */\n      mstore\n        /* \"#utility.yul\":90:208   */\n      pop\n      pop\n      jump\t// out\n        /* \"#utility.yul\":214:436   */\n    tag_28:\n        /* \"#utility.yul\":307:311   */\n      0x00\n        /* \"#utility.yul\":345:347   */\n      0x20\n        /* \"#utility.yul\":334:343   */\n      dup3\n        /* \"#utility.yul\":330:348   */\n      add\n        /* \"#utility.yul\":322:348   */\n      swap1\n      pop\n        /* \"#utility.yul\":358:429   */\n      tag_194\n        /* \"#utility.yul\":426:427   */\n      0x00\n        /* \"#utility.yul\":415:424   */\n      dup4\n        /* \"#utility.yul\":411:428   */\n      add\n        /* \"#utility.yul\":402:408   */\n      dup5\n        /* \"#utility.yul\":358:429   */\n      tag_151\n      jump\t// in\n    tag_194:\n        /* \"#utility.yul\":214:436   */\n      swap3\n      swap2\n      pop\n      pop\n      jump\t// out\n        /* \"#utility.yul\":442:532   */\n    tag_152:\n        /* \"#utility.yul\":476:483   */\n      0x00\n        /* \"#utility.yul\":519:524   */\n      dup2\n        /* \"#utility.yul\":512:525   */\n      iszero\n        /* \"#utility.yul\":505:526   */\n      iszero\n        /* \"#utility.yul\":494:526   */\n      swap1\n      pop\n        /* \"#utility.yul\":442:532   */\n      swap2\n      swap1\n      pop\n      jump\t// out\n        /* \"#utility.yul\":538:647   */\n    tag_153:\n        /* \"#utility.yul\":619:640   */\n      tag_197\n        /* \"#utility.yul\":634:639   */\n      dup2\n        /* \"#utility.yul\":619:640   */\n      tag_152\n      jump\t// in\n    tag_197:\n        /* \"#utility.yul\":614:617   */\n      dup3\n        /* \"#utility.yul\":607:641   */\n      mstore\n        /* \"#utility.yul\":538:647   */\n      pop\n      pop\n      jump\t// out\n        /* \"#utility.yul\":653:863   */\n    tag_32:\n        /* \"#utility.yul\":740:744   */\n      0x00\n        /* \"#utility.yul\":778:780   */\n      0x20\n        /* \"#utility.yul\":767:776   */\n      dup3\n        /* \"#utility.yul\":763:781   */\n      add\n        /* \"#utility.yul\":755:781   */\n      swap1\n      pop\n        /* \"#utility.yul\":791:856   */\n      tag_199\n        /* \"#utility.yul\":853:854   */\n      0x00\n        /* \"#utility.yul\":842:851   */\n      dup4\n        /* \"#utility.yul\":838:855   */\n      add\n        /* \"#utility.yul\":829:835   */\n      dup5\n        /* \"#utility.yul\":791:856   */\n      tag_153\n      jump\t// in\n    tag_199:\n        /* \"#utility.yul\":653:863   */\n      swap3\n      swap2\n      pop\n      pop\n      jump\t// out\n        /* \"#utility.yul\":869:944   */\n    tag_154:\n        /* \"#utility.yul\":902:908   */\n      0x00\n        /* \"#utility.yul\":935:937   */\n      0x40\n        /* \"#utility.yul\":929:938   */\n      mload\n        /* \"#utility.yul\":919:938   */\n      swap1\n      pop\n        /* \"#utility.yul\":869:944   */\n      swap1\n      jump\t// out\n        /* \"#utility.yul\":950:1067   */\n    tag_155:\n        /* \"#utility.yul\":1059:1060   */\n      0x00\n        /* \"#utility.yul\":1056:1057   */\n      dup1\n        /* \"#utility.yul\":1049:1061   */\n      revert\n        /* \"#utility.yul\":1073:1190   */\n    tag_156:\n        /* \"#utility.yul\":1182:1183   */\n      0x00\n        /* \"#utility.yul\":1179:1180   */\n      dup1\n        /* \"#utility.yul\":1172:1184   */\n      revert\n        /* \"#utility.yul\":1196:1318   */\n    tag_157:\n        /* \"#utility.yul\":1269:1293   */\n      tag_204\n        /* \"#utility.yul\":1287:1292   */\n      dup2\n        /* \"#utility.yul\":1269:1293   */\n      tag_150\n      jump\t// in\n    tag_204:\n        /* \"#utility.yul\":1262:1267   */\n      dup2\n        /* \"#utility.yul\":1259:1294   */\n      eq\n        /* \"#utility.yul\":1249:1312   */\n      tag_205\n      jumpi\n        /* \"#utility.yul\":1308:1309   */\n      0x00\n        /* \"#utility.yul\":1305:1306   */\n      dup1\n        /* \"#utility.yul\":1298:1310   */\n      revert\n        /* \"#utility.yul\":1249:1312   */\n    tag_205:\n        /* \"#utility.yul\":1196:1318   */\n      pop\n      jump\t// out\n        /* \"#utility.yul\":1324:1463   */\n    tag_158:\n        /* \"#utility.yul\":1370:1375   */\n      0x00\n        /* \"#utility.yul\":1408:1414   */\n      dup2\n        /* \"#utility.yul\":1395:1415   */\n      calldataload\n        /* \"#utility.yul\":1386:1415   */\n      swap1\n      pop\n        /* \"#utility.yul\":1424:1457   */\n      tag_207\n        /* \"#utility.yul\":1451:1456   */\n      dup2\n        /* \"#utility.yul\":1424:1457   */\n      tag_157\n      jump\t// in\n    tag_207:\n        /* \"#utility.yul\":1324:1463   */\n      swap3\n      swap2\n      pop\n      pop\n      jump\t// out\n        /* \"#utility.yul\":1469:1798   */\n    tag_35:\n        /* \"#utility.yul\":1528:1534   */\n      0x00\n        /* \"#utility.yul\":1577:1579   */\n      0x20\n        /* \"#utility.yul\":1565:1574   */\n      dup3\n        /* \"#utility.yul\":1556:1563   */\n      dup5\n        /* \"#utility.yul\":1552:1575   */\n      sub\n        /* \"#utility.yul\":1548:1580   */\n      slt\n        /* \"#utility.yul\":1545:1664   */\n      iszero\n      tag_209\n      jumpi\n        /* \"#utility.yul\":1583:1662   */\n      tag_210\n      tag_155\n      jump\t// in\n    tag_210:\n        /* \"#utility.yul\":1545:1664   */\n    tag_209:\n        /* \"#utility.yul\":1703:1704   */\n      0x00\n        /* \"#utility.yul\":1728:1781   */\n      tag_211\n        /* \"#utility.yul\":1773:1780   */\n      dup5\n        /* \"#utility.yul\":1764:1770   */\n      dup3\n        /* \"#utility.yul\":1753:1762   */\n      dup6\n        /* \"#utility.yul\":1749:1771   */\n      add\n        /* \"#utility.yul\":1728:1781   */\n      tag_158\n      jump\t// in\n    tag_211:\n        /* \"#utility.yul\":1718:1781   */\n      swap2\n      pop\n        /* \"#utility.yul\":1674:1791   */\n      pop\n        /* \"#utility.yul\":1469:1798   */\n      swap3\n      swap2\n      pop\n      pop\n      jump\t// out\n        /* \"#utility.yul\":1804:1903   */\n    tag_159:\n        /* \"#utility.yul\":1856:1862   */\n      0x00\n        /* \"#utility.yul\":1890:1895   */\n      dup2\n        /* \"#utility.yul\":1884:1896   */\n      mload\n        /* \"#utility.yul\":1874:1896   */\n      swap1\n      pop\n        /* \"#utility.yul\":1804:1903   */\n      swap2\n      swap1\n      pop\n      jump\t// out\n        /* \"#utility.yul\":1909:2078   */\n    tag_160:\n        /* \"#utility.yul\":1993:2004   */\n      0x00\n        /* \"#utility.yul\":2027:2033   */\n      dup3\n        /* \"#utility.yul\":2022:2025   */\n      dup3\n        /* \"#utility.yul\":2015:2034   */\n      mstore\n        /* \"#utility.yul\":2067:2071   */\n      0x20\n        /* \"#utility.yul\":2062:2065   */\n      dup3\n        /* \"#utility.yul\":2058:2072   */\n      add\n        /* \"#utility.yul\":2043:2072   */\n      swap1\n      pop\n        /* \"#utility.yul\":1909:2078   */\n      swap3\n      swap2\n      pop\n      pop\n      jump\t// out\n        /* \"#utility.yul\":2084:2223   */\n    tag_161:\n        /* \"#utility.yul\":2173:2179   */\n      dup3\n        /* \"#utility.yul\":2168:2171   */\n      dup2\n        /* \"#utility.yul\":2163:2166   */\n      dup4\n        /* \"#utility.yul\":2157:2180   */\n      mcopy\n        /* \"#utility.yul\":2214:2215   */\n      0x00\n        /* \"#utility.yul\":2205:2211   */\n      dup4\n        /* \"#utility.yul\":2200:2203   */\n      dup4\n        /* \"#utility.yul\":2196:2212   */\n      add\n        /* \"#utility.yul\":2189:2216   */\n      mstore\n        /* \"#utility.yul\":2084:2223   */\n      pop\n      pop\n      pop\n      jump\t// out\n        /* \"#utility.yul\":2229:2331   */\n    tag_162:\n        /* \"#utility.yul\":2270:2276   */\n      0x00\n        /* \"#utility.yul\":2321:2323   */\n      0x1f\n        /* \"#utility.yul\":2317:2324   */\n      not\n        /* \"#utility.yul\":2312:2314   */\n      0x1f\n        /* \"#utility.yul\":2305:2310   */\n      dup4\n        /* \"#utility.yul\":2301:2315   */\n      add\n        /* \"#utility.yul\":2297:2325   */\n      and\n        /* \"#utility.yul\":2287:2325   */\n      swap1\n      pop\n        /* \"#utility.yul\":2229:2331   */\n      swap2\n      swap1\n      pop\n      jump\t// out\n        /* \"#utility.yul\":2337:2714   */\n    tag_163:\n        /* \"#utility.yul\":2425:2428   */\n      0x00\n        /* \"#utility.yul\":2453:2492   */\n      tag_217\n        /* \"#utility.yul\":2486:2491   */\n      dup3\n        /* \"#utility.yul\":2453:2492   */\n      tag_159\n      jump\t// in\n    tag_217:\n        /* \"#utility.yul\":2508:2579   */\n      tag_218\n        /* \"#utility.yul\":2572:2578   */\n      dup2\n        /* \"#utility.yul\":2567:2570   */\n      dup6\n        /* \"#utility.yul\":2508:2579   */\n      tag_160\n      jump\t// in\n    tag_218:\n        /* \"#utility.yul\":2501:2579   */\n      swap4\n      pop\n        /* \"#utility.yul\":2588:2653   */\n      tag_219\n        /* \"#utility.yul\":2646:2652   */\n      dup2\n        /* \"#utility.yul\":2641:2644   */\n      dup6\n        /* \"#utility.yul\":2634:2638   */\n      0x20\n        /* \"#utility.yul\":2627:2632   */\n      dup7\n        /* \"#utility.yul\":2623:2639   */\n      add\n        /* \"#utility.yul\":2588:2653   */\n      tag_161\n      jump\t// in\n    tag_219:\n        /* \"#utility.yul\":2678:2707   */\n      tag_220\n        /* \"#utility.yul\":2700:2706   */\n      dup2\n        /* \"#utility.yul\":2678:2707   */\n      tag_162\n      jump\t// in\n    tag_220:\n        /* \"#utility.yul\":2673:2676   */\n      dup5\n        /* \"#utility.yul\":2669:2708   */\n      add\n        /* \"#utility.yul\":2662:2708   */\n      swap2\n      pop\n        /* \"#utility.yul\":2429:2714   */\n      pop\n        /* \"#utility.yul\":2337:2714   */\n      swap3\n      swap2\n      pop\n      pop\n      jump\t// out\n        /* \"#utility.yul\":2720:3033   */\n    tag_41:\n        /* \"#utility.yul\":2833:2837   */\n      0x00\n        /* \"#utility.yul\":2871:2873   */\n      0x20\n        /* \"#utility.yul\":2860:2869   */\n      dup3\n        /* \"#utility.yul\":2856:2874   */\n      add\n        /* \"#utility.yul\":2848:2874   */\n      swap1\n      pop\n        /* \"#utility.yul\":2920:2929   */\n      dup2\n        /* \"#utility.yul\":2914:2918   */\n      dup2\n        /* \"#utility.yul\":2910:2930   */\n      sub\n        /* \"#utility.yul\":2906:2907   */\n      0x00\n        /* \"#utility.yul\":2895:2904   */\n      dup4\n        /* \"#utility.yul\":2891:2908   */\n      add\n        /* \"#utility.yul\":2884:2931   */\n      mstore\n        /* \"#utility.yul\":2948:3026   */\n      tag_222\n        /* \"#utility.yul\":3021:3025   */\n      dup2\n        /* \"#utility.yul\":3012:3018   */\n      dup5\n        /* \"#utility.yul\":2948:3026   */\n      tag_163\n      jump\t// in\n    tag_222:\n        /* \"#utility.yul\":2940:3026   */\n      swap1\n      pop\n        /* \"#utility.yul\":2720:3033   */\n      swap3\n      swap2\n      pop\n      pop\n      jump\t// out\n        /* \"#utility.yul\":3039:3156   */\n    tag_164:\n        /* \"#utility.yul\":3148:3149   */\n      0x00\n        /* \"#utility.yul\":3145:3146   */\n      dup1\n        /* \"#utility.yul\":3138:3150   */\n      revert\n        /* \"#utility.yul\":3162:3279   */\n    tag_165:\n        /* \"#utility.yul\":3271:3272   */\n      0x00\n        /* \"#utility.yul\":3268:3269   */\n      dup1\n        /* \"#utility.yul\":3261:3273   */\n      revert\n        /* \"#utility.yul\":3285:3465   */\n    tag_166:\n        /* \"#utility.yul\":3333:3410   */\n      0x4e487b7100000000000000000000000000000000000000000000000000000000\n        /* \"#utility.yul\":3330:3331   */\n      0x00\n        /* \"#utility.yul\":3323:3411   */\n      mstore\n        /* \"#utility.yul\":3430:3434   */\n      0x41\n        /* \"#utility.yul\":3427:3428   */\n      0x04\n        /* \"#utility.yul\":3420:3435   */\n      mstore\n        /* \"#utility.yul\":3454:3458   */\n      0x24\n        /* \"#utility.yul\":3451:3452   */\n      0x00\n        /* \"#utility.yul\":3444:3459   */\n      revert\n        /* \"#utility.yul\":3471:3752   */\n    tag_167:\n        /* \"#utility.yul\":3554:3581   */\n      tag_227\n        /* \"#utility.yul\":3576:3580   */\n      dup3\n        /* \"#utility.yul\":3554:3581   */\n      tag_162\n      jump\t// in\n    tag_227:\n        /* \"#utility.yul\":3546:3552   */\n      dup2\n        /* \"#utility.yul\":3542:3582   */\n      add\n        /* \"#utility.yul\":3684:3690   */\n      dup2\n        /* \"#utility.yul\":3672:3682   */\n      dup2\n        /* \"#utility.yul\":3669:3691   */\n      lt\n        /* \"#utility.yul\":3648:3666   */\n      0xffffffffffffffff\n        /* \"#utility.yul\":3636:3646   */\n      dup3\n        /* \"#utility.yul\":3633:3667   */\n      gt\n        /* \"#utility.yul\":3630:3692   */\n      or\n        /* \"#utility.yul\":3627:3715   */\n      iszero\n      tag_228\n      jumpi\n        /* \"#utility.yul\":3695:3713   */\n      tag_229\n      tag_166\n      jump\t// in\n    tag_229:\n        /* \"#utility.yul\":3627:3715   */\n    tag_228:\n        /* \"#utility.yul\":3735:3745   */\n      dup1\n        /* \"#utility.yul\":3731:3733   */\n      0x40\n        /* \"#utility.yul\":3724:3746   */\n      mstore\n        /* \"#utility.yul\":3514:3752   */\n      pop\n        /* \"#utility.yul\":3471:3752   */\n      pop\n      pop\n      jump\t// out\n        /* \"#utility.yul\":3758:3887   */\n    tag_168:\n        /* \"#utility.yul\":3792:3798   */\n      0x00\n        /* \"#utility.yul\":3819:3839   */\n      tag_231\n      tag_154\n      jump\t// in\n    tag_231:\n        /* \"#utility.yul\":3809:3839   */\n      swap1\n      pop\n        /* \"#utility.yul\":3848:3881   */\n      tag_232\n        /* \"#utility.yul\":3876:3880   */\n      dup3\n        /* \"#utility.yul\":3868:3874   */\n      dup3\n        /* \"#utility.yul\":3848:3881   */\n      tag_167\n      jump\t// in\n    tag_232:\n        /* \"#utility.yul\":3758:3887   */\n      swap2\n      swap1\n      pop\n      jump\t// out\n        /* \"#utility.yul\":3893:4201   */\n    tag_169:\n        /* \"#utility.yul\":3955:3959   */\n      0x00\n        /* \"#utility.yul\":4045:4063   */\n      0xffffffffffffffff\n        /* \"#utility.yul\":4037:4043   */\n      dup3\n        /* \"#utility.yul\":4034:4064   */\n      gt\n        /* \"#utility.yul\":4031:4087   */\n      iszero\n      tag_234\n      jumpi\n        /* \"#utility.yul\":4067:4085   */\n      tag_235\n      tag_166\n      jump\t// in\n    tag_235:\n        /* \"#utility.yul\":4031:4087   */\n    tag_234:\n        /* \"#utility.yul\":4105:4134   */\n      tag_236\n        /* \"#utility.yul\":4127:4133   */\n      dup3\n        /* \"#utility.yul\":4105:4134   */\n      tag_162\n      jump\t// in\n    tag_236:\n        /* \"#utility.yul\":4097:4134   */\n      swap1\n      pop\n        /* \"#utility.yul\":4189:4193   */\n      0x20\n        /* \"#utility.yul\":4183:4187   */\n      dup2\n        /* \"#utility.yul\":4179:4194   */\n      add\n        /* \"#utility.yul\":4171:4194   */\n      swap1\n      pop\n        /* \"#utility.yul\":3893:4201   */\n      swap2\n      swap1\n      pop\n      jump\t// out\n        /* \"#utility.yul\":4207:4355   */\n    tag_170:\n        /* \"#utility.yul\":4305:4311   */\n      dup3\n        /* \"#utility.yul\":4300:4303   */\n      dup2\n        /* \"#utility.yul\":4295:4298   */\n      dup4\n        /* \"#utility.yul\":4282:4312   */\n      calldatacopy\n        /* \"#utility.yul\":4346:4347   */\n      0x00\n        /* \"#utility.yul\":4337:4343   */\n      dup4\n        /* \"#utility.yul\":4332:4335   */\n      dup4\n        /* \"#utility.yul\":4328:4344   */\n      add\n        /* \"#utility.yul\":4321:4348   */\n      mstore\n        /* \"#utility.yul\":4207:4355   */\n      pop\n      pop\n      pop\n      jump\t// out\n        /* \"#utility.yul\":4361:4786   */\n    tag_171:\n        /* \"#utility.yul\":4439:4444   */\n      0x00\n        /* \"#utility.yul\":4464:4530   */\n      tag_239\n        /* \"#utility.yul\":4480:4529   */\n      tag_240\n        /* \"#utility.yul\":4522:4528   */\n      dup5\n        /* \"#utility.yul\":4480:4529   */\n      tag_169\n      jump\t// in\n    tag_240:\n        /* \"#utility.yul\":4464:4530   */\n      tag_168\n      jump\t// in\n    tag_239:\n        /* \"#utility.yul\":4455:4530   */\n      swap1\n      pop\n        /* \"#utility.yul\":4553:4559   */\n      dup3\n        /* \"#utility.yul\":4546:4551   */\n      dup2\n        /* \"#utility.yul\":4539:4560   */\n      mstore\n        /* \"#utility.yul\":4591:4595   */\n      0x20\n        /* \"#utility.yul\":4584:4589   */\n      dup2\n        /* \"#utility.yul\":4580:4596   */\n      add\n        /* \"#utility.yul\":4629:4632   */\n      dup5\n        /* \"#utility.yul\":4620:4626   */\n      dup5\n        /* \"#utility.yul\":4615:4618   */\n      dup5\n        /* \"#utility.yul\":4611:4627   */\n      add\n        /* \"#utility.yul\":4608:4633   */\n      gt\n        /* \"#utility.yul\":4605:4717   */\n      iszero\n      tag_241\n      jumpi\n        /* \"#utility.yul\":4636:4715   */\n      tag_242\n      tag_165\n      jump\t// in\n    tag_242:\n        /* \"#utility.yul\":4605:4717   */\n    tag_241:\n        /* \"#utility.yul\":4726:4780   */\n      tag_243\n        /* \"#utility.yul\":4773:4779   */\n      dup5\n        /* \"#utility.yul\":4768:4771   */\n      dup3\n        /* \"#utility.yul\":4763:4766   */\n      dup6\n        /* \"#utility.yul\":4726:4780   */\n      tag_170\n      jump\t// in\n    tag_243:\n        /* \"#utility.yul\":4445:4786   */\n      pop\n        /* \"#utility.yul\":4361:4786   */\n      swap4\n      swap3\n      pop\n      pop\n      pop\n      jump\t// out\n        /* \"#utility.yul\":4806:5146   */\n    tag_172:\n        /* \"#utility.yul\":4862:4867   */\n      0x00\n        /* \"#utility.yul\":4911:4914   */\n      dup3\n        /* \"#utility.yul\":4904:4908   */\n      0x1f\n        /* \"#utility.yul\":4896:4902   */\n      dup4\n        /* \"#utility.yul\":4892:4909   */\n      add\n        /* \"#utility.yul\":4888:4915   */\n      slt\n        /* \"#utility.yul\":4878:5000   */\n      tag_245\n      jumpi\n        /* \"#utility.yul\":4919:4998   */\n      tag_246\n      tag_164\n      jump\t// in\n    tag_246:\n        /* \"#utility.yul\":4878:5000   */\n    tag_245:\n        /* \"#utility.yul\":5036:5042   */\n      dup2\n        /* \"#utility.yul\":5023:5043   */\n      calldataload\n        /* \"#utility.yul\":5061:5140   */\n      tag_247\n        /* \"#utility.yul\":5136:5139   */\n      dup5\n        /* \"#utility.yul\":5128:5134   */\n      dup3\n        /* \"#utility.yul\":5121:5125   */\n      0x20\n        /* \"#utility.yul\":5113:5119   */\n      dup7\n        /* \"#utility.yul\":5109:5126   */\n      add\n        /* \"#utility.yul\":5061:5140   */\n      tag_171\n      jump\t// in\n    tag_247:\n        /* \"#utility.yul\":5052:5140   */\n      swap2\n      pop\n        /* \"#utility.yul\":4868:5146   */\n      pop\n        /* \"#utility.yul\":4806:5146   */\n      swap3\n      swap2\n      pop\n      pop\n      jump\t// out\n        /* \"#utility.yul\":5152:5806   */\n    tag_47:\n        /* \"#utility.yul\":5230:5236   */\n      0x00\n        /* \"#utility.yul\":5238:5244   */\n      dup1\n        /* \"#utility.yul\":5287:5289   */\n      0x40\n        /* \"#utility.yul\":5275:5284   */\n      dup4\n        /* \"#utility.yul\":5266:5273   */\n      dup6\n        /* \"#utility.yul\":5262:5285   */\n      sub\n        /* \"#utility.yul\":5258:5290   */\n      slt\n        /* \"#utility.yul\":5255:5374   */\n      iszero\n      tag_249\n      jumpi\n        /* \"#utility.yul\":5293:5372   */\n      tag_250\n      tag_155\n      jump\t// in\n    tag_250:\n        /* \"#utility.yul\":5255:5374   */\n    tag_249:\n        /* \"#utility.yul\":5441:5442   */\n      0x00\n        /* \"#utility.yul\":5430:5439   */\n      dup4\n        /* \"#utility.yul\":5426:5443   */\n      add\n        /* \"#utility.yul\":5413:5444   */\n      calldataload\n        /* \"#utility.yul\":5471:5489   */\n      0xffffffffffffffff\n        /* \"#utility.yul\":5463:5469   */\n      dup2\n        /* \"#utility.yul\":5460:5490   */\n      gt\n        /* \"#utility.yul\":5457:5574   */\n      iszero\n      tag_251\n      jumpi\n        /* \"#utility.yul\":5493:5572   */\n      tag_252\n      tag_156\n      jump\t// in\n    tag_252:\n        /* \"#utility.yul\":5457:5574   */\n    tag_251:\n        /* \"#utility.yul\":5598:5661   */\n      tag_253\n        /* \"#utility.yul\":5653:5660   */\n      dup6\n        /* \"#utility.yul\":5644:5650   */\n      dup3\n        /* \"#utility.yul\":5633:5642   */\n      dup7\n        /* \"#utility.yul\":5629:5651   */\n      add\n        /* \"#utility.yul\":5598:5661   */\n      tag_172\n      jump\t// in\n    tag_253:\n        /* \"#utility.yul\":5588:5661   */\n      swap3\n      pop\n        /* \"#utility.yul\":5384:5671   */\n      pop\n        /* \"#utility.yul\":5710:5712   */\n      0x20\n        /* \"#utility.yul\":5736:5789   */\n      tag_254\n        /* \"#utility.yul\":5781:5788   */\n      dup6\n        /* \"#utility.yul\":5772:5778   */\n      dup3\n        /* \"#utility.yul\":5761:5770   */\n      dup7\n        /* \"#utility.yul\":5757:5779   */\n      add\n        /* \"#utility.yul\":5736:5789   */\n      tag_158\n      jump\t// in\n    tag_254:\n        /* \"#utility.yul\":5726:5789   */\n      swap2\n      pop\n        /* \"#utility.yul\":5681:5799   */\n      pop\n        /* \"#utility.yul\":5152:5806   */\n      swap3\n      pop\n      swap3\n      swap1\n      pop\n      jump\t// out\n        /* \"#utility.yul\":5812:6321   */\n    tag_54:\n        /* \"#utility.yul\":5881:5887   */\n      0x00\n        /* \"#utility.yul\":5930:5932   */\n      0x20\n        /* \"#utility.yul\":5918:5927   */\n      dup3\n        /* \"#utility.yul\":5909:5916   */\n      dup5\n        /* \"#utility.yul\":5905:5928   */\n      sub\n        /* \"#utility.yul\":5901:5933   */\n      slt\n        /* \"#utility.yul\":5898:6017   */\n      iszero\n      tag_256\n      jumpi\n        /* \"#utility.yul\":5936:6015   */\n      tag_257\n      tag_155\n      jump\t// in\n    tag_257:\n        /* \"#utility.yul\":5898:6017   */\n    tag_256:\n        /* \"#utility.yul\":6084:6085   */\n      0x00\n        /* \"#utility.yul\":6073:6082   */\n      dup3\n        /* \"#utility.yul\":6069:6086   */\n      add\n        /* \"#utility.yul\":6056:6087   */\n      calldataload\n        /* \"#utility.yul\":6114:6132   */\n      0xffffffffffffffff\n        /* \"#utility.yul\":6106:6112   */\n      dup2\n        /* \"#utility.yul\":6103:6133   */\n      gt\n        /* \"#utility.yul\":6100:6217   */\n      iszero\n      tag_258\n      jumpi\n        /* \"#utility.yul\":6136:6215   */\n      tag_259\n      tag_156\n      jump\t// in\n    tag_259:\n        /* \"#utility.yul\":6100:6217   */\n    tag_258:\n        /* \"#utility.yul\":6241:6304   */\n      tag_260\n        /* \"#utility.yul\":6296:6303   */\n      dup5\n        /* \"#utility.yul\":6287:6293   */\n      dup3\n        /* \"#utility.yul\":6276:6285   */\n      dup6\n        /* \"#utility.yul\":6272:6294   */\n      add\n        /* \"#utility.yul\":6241:6304   */\n      tag_172\n      jump\t// in\n    tag_260:\n        /* \"#utility.yul\":6231:6304   */\n      swap2\n      pop\n        /* \"#utility.yul\":6027:6314   */\n      pop\n        /* \"#utility.yul\":5812:6321   */\n      swap3\n      swap2\n      pop\n      pop\n      jump\t// out\n        /* \"#utility.yul\":6327:6750   */\n    tag_63:\n        /* \"#utility.yul\":6468:6472   */\n      0x00\n        /* \"#utility.yul\":6506:6508   */\n      0x40\n        /* \"#utility.yul\":6495:6504   */\n      dup3\n        /* \"#utility.yul\":6491:6509   */\n      add\n        /* \"#utility.yul\":6483:6509   */\n      swap1\n      pop\n        /* \"#utility.yul\":6555:6564   */\n      dup2\n        /* \"#utility.yul\":6549:6553   */\n      dup2\n        /* \"#utility.yul\":6545:6565   */\n      sub\n        /* \"#utility.yul\":6541:6542   */\n      0x00\n        /* \"#utility.yul\":6530:6539   */\n      dup4\n        /* \"#utility.yul\":6526:6543   */\n      add\n        /* \"#utility.yul\":6519:6566   */\n      mstore\n        /* \"#utility.yul\":6583:6661   */\n      tag_262\n        /* \"#utility.yul\":6656:6660   */\n      dup2\n        /* \"#utility.yul\":6647:6653   */\n      dup6\n        /* \"#utility.yul\":6583:6661   */\n      tag_163\n      jump\t// in\n    tag_262:\n        /* \"#utility.yul\":6575:6661   */\n      swap1\n      pop\n        /* \"#utility.yul\":6671:6743   */\n      tag_263\n        /* \"#utility.yul\":6739:6741   */\n      0x20\n        /* \"#utility.yul\":6728:6737   */\n      dup4\n        /* \"#utility.yul\":6724:6742   */\n      add\n        /* \"#utility.yul\":6715:6721   */\n      dup5\n        /* \"#utility.yul\":6671:6743   */\n      tag_151\n      jump\t// in\n    tag_263:\n        /* \"#utility.yul\":6327:6750   */\n      swap4\n      swap3\n      pop\n      pop\n      pop\n      jump\t// out\n        /* \"#utility.yul\":6756:6936   */\n    tag_106:\n        /* \"#utility.yul\":6804:6881   */\n      0x4e487b7100000000000000000000000000000000000000000000000000000000\n        /* \"#utility.yul\":6801:6802   */\n      0x00\n        /* \"#utility.yul\":6794:6882   */\n      mstore\n        /* \"#utility.yul\":6901:6905   */\n      0x21\n        /* \"#utility.yul\":6898:6899   */\n      0x04\n        /* \"#utility.yul\":6891:6906   */\n      mstore\n        /* \"#utility.yul\":6925:6929   */\n      0x24\n        /* \"#utility.yul\":6922:6923   */\n      0x00\n        /* \"#utility.yul\":6915:6930   */\n      revert\n        /* \"#utility.yul\":6942:7063   */\n    tag_173:\n        /* \"#utility.yul\":7031:7032   */\n      0x02\n        /* \"#utility.yul\":7024:7029   */\n      dup2\n        /* \"#utility.yul\":7021:7033   */\n      lt\n        /* \"#utility.yul\":7011:7057   */\n      tag_266\n      jumpi\n        /* \"#utility.yul\":7037:7055   */\n      tag_267\n      tag_106\n      jump\t// in\n    tag_267:\n        /* \"#utility.yul\":7011:7057   */\n    tag_266:\n        /* \"#utility.yul\":6942:7063   */\n      pop\n      jump\t// out\n        /* \"#utility.yul\":7069:7212   */\n    tag_174:\n        /* \"#utility.yul\":7122:7129   */\n      0x00\n        /* \"#utility.yul\":7151:7156   */\n      dup2\n        /* \"#utility.yul\":7140:7156   */\n      swap1\n      pop\n        /* \"#utility.yul\":7157:7206   */\n      tag_269\n        /* \"#utility.yul\":7200:7205   */\n      dup3\n        /* \"#utility.yul\":7157:7206   */\n      tag_173\n      jump\t// in\n    tag_269:\n        /* \"#utility.yul\":7069:7212   */\n      swap2\n      swap1\n      pop\n      jump\t// out\n        /* \"#utility.yul\":7218:7361   */\n    tag_175:\n        /* \"#utility.yul\":7282:7291   */\n      0x00\n        /* \"#utility.yul\":7315:7355   */\n      tag_271\n        /* \"#utility.yul\":7349:7354   */\n      dup3\n        /* \"#utility.yul\":7315:7355   */\n      tag_174\n      jump\t// in\n    tag_271:\n        /* \"#utility.yul\":7302:7355   */\n      swap1\n      pop\n        /* \"#utility.yul\":7218:7361   */\n      swap2\n      swap1\n      pop\n      jump\t// out\n        /* \"#utility.yul\":7367:7526   */\n    tag_176:\n        /* \"#utility.yul\":7468:7519   */\n      tag_273\n        /* \"#utility.yul\":7513:7518   */\n      dup2\n        /* \"#utility.yul\":7468:7519   */\n      tag_175\n      jump\t// in\n    tag_273:\n        /* \"#utility.yul\":7463:7466   */\n      dup3\n        /* \"#utility.yul\":7456:7520   */\n      mstore\n        /* \"#utility.yul\":7367:7526   */\n      pop\n      pop\n      jump\t// out\n        /* \"#utility.yul\":7532:7782   */\n    tag_78:\n        /* \"#utility.yul\":7639:7643   */\n      0x00\n        /* \"#utility.yul\":7677:7679   */\n      0x20\n        /* \"#utility.yul\":7666:7675   */\n      dup3\n        /* \"#utility.yul\":7662:7680   */\n      add\n        /* \"#utility.yul\":7654:7680   */\n      swap1\n      pop\n        /* \"#utility.yul\":7690:7775   */\n      tag_275\n        /* \"#utility.yul\":7772:7773   */\n      0x00\n        /* \"#utility.yul\":7761:7770   */\n      dup4\n        /* \"#utility.yul\":7757:7774   */\n      add\n        /* \"#utility.yul\":7748:7754   */\n      dup5\n        /* \"#utility.yul\":7690:7775   */\n      tag_176\n      jump\t// in\n    tag_275:\n        /* \"#utility.yul\":7532:7782   */\n      swap3\n      swap2\n      pop\n      pop\n      jump\t// out\n        /* \"#utility.yul\":7788:7905   */\n    tag_177:\n        /* \"#utility.yul\":7897:7898   */\n      0x00\n        /* \"#utility.yul\":7894:7895   */\n      dup1\n        /* \"#utility.yul\":7887:7899   */\n      revert\n        /* \"#utility.yul\":7911:8028   */\n    tag_178:\n        /* \"#utility.yul\":8020:8021   */\n      0x00\n        /* \"#utility.yul\":8017:8018   */\n      dup1\n        /* \"#utility.yul\":8010:8022   */\n      revert\n        /* \"#utility.yul\":8048:8601   */\n    tag_179:\n        /* \"#utility.yul\":8106:8114   */\n      0x00\n        /* \"#utility.yul\":8116:8122   */\n      dup1\n        /* \"#utility.yul\":8166:8169   */\n      dup4\n        /* \"#utility.yul\":8159:8163   */\n      0x1f\n        /* \"#utility.yul\":8151:8157   */\n      dup5\n        /* \"#utility.yul\":8147:8164   */\n      add\n        /* \"#utility.yul\":8143:8170   */\n      slt\n        /* \"#utility.yul\":8133:8255   */\n      tag_279\n      jumpi\n        /* \"#utility.yul\":8174:8253   */\n      tag_280\n      tag_164\n      jump\t// in\n    tag_280:\n        /* \"#utility.yul\":8133:8255   */\n    tag_279:\n        /* \"#utility.yul\":8287:8293   */\n      dup3\n        /* \"#utility.yul\":8274:8294   */\n      calldataload\n        /* \"#utility.yul\":8264:8294   */\n      swap1\n      pop\n        /* \"#utility.yul\":8317:8335   */\n      0xffffffffffffffff\n        /* \"#utility.yul\":8309:8315   */\n      dup2\n        /* \"#utility.yul\":8306:8336   */\n      gt\n        /* \"#utility.yul\":8303:8420   */\n      iszero\n      tag_281\n      jumpi\n        /* \"#utility.yul\":8339:8418   */\n      tag_282\n      tag_177\n      jump\t// in\n    tag_282:\n        /* \"#utility.yul\":8303:8420   */\n    tag_281:\n        /* \"#utility.yul\":8453:8457   */\n      0x20\n        /* \"#utility.yul\":8445:8451   */\n      dup4\n        /* \"#utility.yul\":8441:8458   */\n      add\n        /* \"#utility.yul\":8429:8458   */\n      swap2\n      pop\n        /* \"#utility.yul\":8507:8510   */\n      dup4\n        /* \"#utility.yul\":8499:8503   */\n      0x01\n        /* \"#utility.yul\":8491:8497   */\n      dup3\n        /* \"#utility.yul\":8487:8504   */\n      mul\n        /* \"#utility.yul\":8477:8485   */\n      dup4\n        /* \"#utility.yul\":8473:8505   */\n      add\n        /* \"#utility.yul\":8470:8511   */\n      gt\n        /* \"#utility.yul\":8467:8595   */\n      iszero\n      tag_283\n      jumpi\n        /* \"#utility.yul\":8514:8593   */\n      tag_284\n      tag_178\n      jump\t// in\n    tag_284:\n        /* \"#utility.yul\":8467:8595   */\n    tag_283:\n        /* \"#utility.yul\":8048:8601   */\n      swap3\n      pop\n      swap3\n      swap1\n      pop\n      jump\t// out\n        /* \"#utility.yul\":8607:9136   */\n    tag_89:\n        /* \"#utility.yul\":8678:8684   */\n      0x00\n        /* \"#utility.yul\":8686:8692   */\n      dup1\n        /* \"#utility.yul\":8735:8737   */\n      0x20\n        /* \"#utility.yul\":8723:8732   */\n      dup4\n        /* \"#utility.yul\":8714:8721   */\n      dup6\n        /* \"#utility.yul\":8710:8733   */\n      sub\n        /* \"#utility.yul\":8706:8738   */\n      slt\n        /* \"#utility.yul\":8703:8822   */\n      iszero\n      tag_286\n      jumpi\n        /* \"#utility.yul\":8741:8820   */\n      tag_287\n      tag_155\n      jump\t// in\n    tag_287:\n        /* \"#utility.yul\":8703:8822   */\n    tag_286:\n        /* \"#utility.yul\":8889:8890   */\n      0x00\n        /* \"#utility.yul\":8878:8887   */\n      dup4\n        /* \"#utility.yul\":8874:8891   */\n      add\n        /* \"#utility.yul\":8861:8892   */\n      calldataload\n        /* \"#utility.yul\":8919:8937   */\n      0xffffffffffffffff\n        /* \"#utility.yul\":8911:8917   */\n      dup2\n        /* \"#utility.yul\":8908:8938   */\n      gt\n        /* \"#utility.yul\":8905:9022   */\n      iszero\n      tag_288\n      jumpi\n        /* \"#utility.yul\":8941:9020   */\n      tag_289\n      tag_156\n      jump\t// in\n    tag_289:\n        /* \"#utility.yul\":8905:9022   */\n    tag_288:\n        /* \"#utility.yul\":9054:9119   */\n      tag_290\n        /* \"#utility.yul\":9111:9118   */\n      dup6\n        /* \"#utility.yul\":9102:9108   */\n      dup3\n        /* \"#utility.yul\":9091:9100   */\n      dup7\n        /* \"#utility.yul\":9087:9109   */\n      add\n        /* \"#utility.yul\":9054:9119   */\n      tag_179\n      jump\t// in\n    tag_290:\n        /* \"#utility.yul\":9036:9119   */\n      swap3\n      pop\n      swap3\n      pop\n        /* \"#utility.yul\":8832:9129   */\n      pop\n        /* \"#utility.yul\":8607:9136   */\n      swap3\n      pop\n      swap3\n      swap1\n      pop\n      jump\t// out\n        /* \"#utility.yul\":9142:9322   */\n    tag_180:\n        /* \"#utility.yul\":9190:9267   */\n      0x4e487b7100000000000000000000000000000000000000000000000000000000\n        /* \"#utility.yul\":9187:9188   */\n      0x00\n        /* \"#utility.yul\":9180:9268   */\n      mstore\n        /* \"#utility.yul\":9287:9291   */\n      0x11\n        /* \"#utility.yul\":9284:9285   */\n      0x04\n        /* \"#utility.yul\":9277:9292   */\n      mstore\n        /* \"#utility.yul\":9311:9315   */\n      0x24\n        /* \"#utility.yul\":9308:9309   */\n      0x00\n        /* \"#utility.yul\":9301:9316   */\n      revert\n        /* \"#utility.yul\":9328:9519   */\n    tag_100:\n        /* \"#utility.yul\":9368:9371   */\n      0x00\n        /* \"#utility.yul\":9387:9407   */\n      tag_293\n        /* \"#utility.yul\":9405:9406   */\n      dup3\n        /* \"#utility.yul\":9387:9407   */\n      tag_150\n      jump\t// in\n    tag_293:\n        /* \"#utility.yul\":9382:9407   */\n      swap2\n      pop\n        /* \"#utility.yul\":9421:9441   */\n      tag_294\n        /* \"#utility.yul\":9439:9440   */\n      dup4\n        /* \"#utility.yul\":9421:9441   */\n      tag_150\n      jump\t// in\n    tag_294:\n        /* \"#utility.yul\":9416:9441   */\n      swap3\n      pop\n        /* \"#utility.yul\":9464:9465   */\n      dup3\n        /* \"#utility.yul\":9461:9462   */\n      dup3\n        /* \"#utility.yul\":9457:9466   */\n      add\n        /* \"#utility.yul\":9450:9466   */\n      swap1\n      pop\n        /* \"#utility.yul\":9485:9488   */\n      dup1\n        /* \"#utility.yul\":9482:9483   */\n      dup3\n        /* \"#utility.yul\":9479:9489   */\n      gt\n        /* \"#utility.yul\":9476:9512   */\n      iszero\n      tag_295\n      jumpi\n        /* \"#utility.yul\":9492:9510   */\n      tag_296\n      tag_180\n      jump\t// in\n    tag_296:\n        /* \"#utility.yul\":9476:9512   */\n    tag_295:\n        /* \"#utility.yul\":9328:9519   */\n      swap3\n      swap2\n      pop\n      pop\n      jump\t// out\n        /* \"#utility.yul\":9525:9758   */\n    tag_102:\n        /* \"#utility.yul\":9564:9567   */\n      0x00\n        /* \"#utility.yul\":9587:9611   */\n      tag_298\n        /* \"#utility.yul\":9605:9610   */\n      dup3\n        /* \"#utility.yul\":9587:9611   */\n      tag_150\n      jump\t// in\n    tag_298:\n        /* \"#utility.yul\":9578:9611   */\n      swap2\n      pop\n        /* \"#utility.yul\":9633:9699   */\n      0xffffffffffffffffffffffffffffffffffffffffffffffffffffffffffffffff\n        /* \"#utility.yul\":9626:9631   */\n      dup3\n        /* \"#utility.yul\":9623:9700   */\n      sub\n        /* \"#utility.yul\":9620:9723   */\n      tag_299\n      jumpi\n        /* \"#utility.yul\":9703:9721   */\n      tag_300\n      tag_180\n      jump\t// in\n    tag_300:\n        /* \"#utility.yul\":9620:9723   */\n    tag_299:\n        /* \"#utility.yul\":9750:9751   */\n      0x01\n        /* \"#utility.yul\":9743:9748   */\n      dup3\n        /* \"#utility.yul\":9739:9752   */\n      add\n        /* \"#utility.yul\":9732:9752   */\n      swap1\n      pop\n        /* \"#utility.yul\":9525:9758   */\n      swap2\n      swap1\n      pop\n      jump\t// out\n        /* \"#utility.yul\":9764:9912   */\n    tag_181:\n        /* \"#utility.yul\":9866:9877   */\n      0x00\n        /* \"#utility.yul\":9903:9906   */\n      dup2\n        /* \"#utility.yul\":9888:9906   */\n      swap1\n      pop\n        /* \"#utility.yul\":9764:9912   */\n      swap3\n      swap2\n      pop\n      pop\n      jump\t// out\n        /* \"#utility.yul\":9918:10308   */\n    tag_182:\n        /* \"#utility.yul\":10024:10027   */\n      0x00\n        /* \"#utility.yul\":10052:10091   */\n      tag_303\n        /* \"#utility.yul\":10085:10090   */\n      dup3\n        /* \"#utility.yul\":10052:10091   */\n      tag_159\n      jump\t// in\n    tag_303:\n        /* \"#utility.yul\":10107:10196   */\n      tag_304\n        /* \"#utility.yul\":10189:10195   */\n      dup2\n        /* \"#utility.yul\":10184:10187   */\n      dup6\n        /* \"#utility.yul\":10107:10196   */\n      tag_181\n      jump\t// in\n    tag_304:\n        /* \"#utility.yul\":10100:10196   */\n      swap4\n      pop\n        /* \"#utility.yul\":10205:10270   */\n      tag_305\n        /* \"#utility.yul\":10263:10269   */\n      dup2\n        /* \"#utility.yul\":10258:10261   */\n      dup6\n        /* \"#utility.yul\":10251:10255   */\n      0x20\n        /* \"#utility.yul\":10244:10249   */\n      dup7\n        /* \"#utility.yul\":10240:10256   */\n      add\n        /* \"#utility.yul\":10205:10270   */\n      tag_161\n      jump\t// in\n    tag_305:\n        /* \"#utility.yul\":10295:10301   */\n      dup1\n        /* \"#utility.yul\":10290:10293   */\n      dup5\n        /* \"#utility.yul\":10286:10302   */\n      add\n        /* \"#utility.yul\":10279:10302   */\n      swap2\n      pop\n        /* \"#utility.yul\":10028:10308   */\n      pop\n        /* \"#utility.yul\":9918:10308   */\n      swap3\n      swap2\n      pop\n      pop\n      jump\t// out\n        /* \"#utility.yul\":10314:10589   */\n    tag_114:\n        /* \"#utility.yul\":10446:10449   */\n      0x00\n        /* \"#utility.yul\":10468:10563   */\n      tag_307\n        /* \"#utility.yul\":10559:10562   */\n      dup3\n        /* \"#utility.yul\":10550:10556   */\n      dup5\n        /* \"#utility.yul\":10468:10563   */\n      tag_182\n      jump\t// in\n    tag_307:\n        /* \"#utility.yul\":10461:10563   */\n      swap2\n      pop\n        /* \"#utility.yul\":10580:10583   */\n      dup2\n        /* \"#utility.yul\":10573:10583   */\n      swap1\n      pop\n        /* \"#utility.yul\":10314:10589   */\n      swap3\n      swap2\n      pop\n      pop\n      jump\t// out\n        /* \"#utility.yul\":10595:10775   */\n    tag_183:\n        /* \"#utility.yul\":10643:10720   */\n      0x4e487b7100000000000000000000000000000000000000000000000000000000\n        /* \"#utility.yul\":10640:10641   */\n      0x00\n        /* \"#utility.yul\":10633:10721   */\n      mstore\n        /* \"#utility.yul\":10740:10744   */\n      0x22\n        /* \"#utility.yul\":10737:10738   */\n      0x04\n        /* \"#utility.yul\":10730:10745   */\n      mstore\n        /* \"#utility.yul\":10764:10768   */\n      0x24\n        /* \"#utility.yul\":10761:10762   */\n      0x00\n        /* \"#utility.yul\":10754:10769   */\n      revert\n        /* \"#utility.yul\":10781:11101   */\n    tag_124:\n        /* \"#utility.yul\":10825:10831   */\n      0x00\n        /* \"#utility.yul\":10862:10863   */\n      0x02\n        /* \"#utility.yul\":10856:10860   */\n      dup3\n        /* \"#utility.yul\":10852:10864   */\n      div\n        /* \"#utility.yul\":10842:10864   */\n      swap1\n      pop\n        /* \"#utility.yul\":10909:10910   */\n      0x01\n        /* \"#utility.yul\":10903:10907   */\n      dup3\n        /* \"#utility.yul\":10899:10911   */\n      and\n        /* \"#utility.yul\":10930:10948   */\n      dup1\n        /* \"#utility.yul\":10920:11001   */\n      tag_310\n      jumpi\n        /* \"#utility.yul\":10986:10990   */\n      0x7f\n        /* \"#utility.yul\":10978:10984   */\n      dup3\n        /* \"#utility.yul\":10974:10991   */\n      and\n        /* \"#utility.yul\":10964:10991   */\n      swap2\n      pop\n        /* \"#utility.yul\":10920:11001   */\n    tag_310:\n        /* \"#utility.yul\":11048:11050   */\n      0x20\n        /* \"#utility.yul\":11040:11046   */\n      dup3\n        /* \"#utility.yul\":11037:11051   */\n      lt\n        /* \"#utility.yul\":11017:11035   */\n      dup2\n        /* \"#utility.yul\":11014:11052   */\n      sub\n        /* \"#utility.yul\":11011:11095   */\n      tag_311\n      jumpi\n        /* \"#utility.yul\":11067:11085   */\n      tag_312\n      tag_183\n      jump\t// in\n    tag_312:\n        /* \"#utility.yul\":11011:11095   */\n    tag_311:\n        /* \"#utility.yul\":10832:11101   */\n      pop\n        /* \"#utility.yul\":10781:11101   */\n      swap2\n      swap1\n      pop\n      jump\t// out\n        /* \"#utility.yul\":11107:11263   */\n    tag_184:\n        /* \"#utility.yul\":11247:11255   */\n      0x48656c6c6f200000000000000000000000000000000000000000000000000000\n        /* \"#utility.yul\":11243:11244   */\n      0x00\n        /* \"#utility.yul\":11235:11241   */\n      dup3\n        /* \"#utility.yul\":11231:11245   */\n      add\n        /* \"#utility.yul\":11224:11256   */\n      mstore\n        /* \"#utility.yul\":11107:11263   */\n      pop\n      jump\t// out\n        /* \"#utility.yul\":11269:11669   */\n    tag_185:\n        /* \"#utility.yul\":11429:11432   */\n      0x00\n        /* \"#utility.yul\":11450:11534   */\n      tag_315\n        /* \"#utility.yul\":11532:11533   */\n      0x06\n        /* \"#utility.yul\":11527:11530   */\n      dup4\n        /* \"#utility.yul\":11450:11534   */\n      tag_181\n      jump\t// in\n    tag_315:\n        /* \"#utility.yul\":11443:11534   */\n      swap2\n      pop\n        /* \"#utility.yul\":11543:11636   */\n      tag_316\n        /* \"#utility.yul\":11632:11635   */\n      dup3\n        /* \"#utility.yul\":11543:11636   */\n      tag_184\n      jump\t// in\n    tag_316:\n        /* \"#utility.yul\":11661:11662   */\n      0x06\n        /* \"#utility.yul\":11656:11659   */\n      dup3\n        /* \"#utility.yul\":11652:11663   */\n      add\n        /* \"#utility.yul\":11645:11663   */\n      swap1\n      pop\n        /* \"#utility.yul\":11269:11669   */\n      swap2\n      swap1\n      pop\n      jump\t// out\n        /* \"#utility.yul\":11699:12029   */\n    tag_186:\n        /* \"#utility.yul\":11815:11818   */\n      0x00\n        /* \"#utility.yul\":11836:11925   */\n      tag_318\n        /* \"#utility.yul\":11918:11924   */\n      dup4\n        /* \"#utility.yul\":11913:11916   */\n      dup6\n        /* \"#utility.yul\":11836:11925   */\n      tag_181\n      jump\t// in\n    tag_318:\n        /* \"#utility.yul\":11829:11925   */\n      swap4\n      pop\n        /* \"#utility.yul\":11935:11991   */\n      tag_319\n        /* \"#utility.yul\":11984:11990   */\n      dup4\n        /* \"#utility.yul\":11979:11982   */\n      dup6\n        /* \"#utility.yul\":11972:11977   */\n      dup5\n        /* \"#utility.yul\":11935:11991   */\n      tag_170\n      jump\t// in\n    tag_319:\n        /* \"#utility.yul\":12016:12022   */\n      dup3\n        /* \"#utility.yul\":12011:12014   */\n      dup5\n        /* \"#utility.yul\":12007:12023   */\n      add\n        /* \"#utility.yul\":12000:12023   */\n      swap1\n      pop\n        /* \"#utility.yul\":11699:12029   */\n      swap4\n      swap3\n      pop\n      pop\n      pop\n      jump\t// out\n        /* \"#utility.yul\":12035:12596   */\n    tag_143:\n        /* \"#utility.yul\":12278:12281   */\n      0x00\n        /* \"#utility.yul\":12300:12448   */\n      tag_321\n        /* \"#utility.yul\":12444:12447   */\n      dup3\n        /* \"#utility.yul\":12300:12448   */\n      tag_185\n      jump\t// in\n    tag_321:\n        /* \"#utility.yul\":12293:12448   */\n      swap2\n      pop\n        /* \"#utility.yul\":12465:12570   */\n      tag_322\n        /* \"#utility.yul\":12566:12569   */\n      dup3\n        /* \"#utility.yul\":12557:12563   */\n      dup5\n        /* \"#utility.yul\":12549:12555   */\n      dup7\n        /* \"#utility.yul\":12465:12570   */\n      tag_186\n      jump\t// in\n    tag_322:\n        /* \"#utility.yul\":12458:12570   */\n      swap2\n      pop\n        /* \"#utility.yul\":12587:12590   */\n      dup2\n        /* \"#utility.yul\":12580:12590   */\n      swap1\n      pop\n        /* \"#utility.yul\":12035:12596   */\n      swap4\n      swap3\n      pop\n      pop\n      pop\n      jump\t// out\n        /* \"#utility.yul\":12602:13036   */\n    tag_187:\n        /* \"#utility.yul\":12691:12696   */\n      0x00\n        /* \"#utility.yul\":12716:12782   */\n      tag_324\n        /* \"#utility.yul\":12732:12781   */\n      tag_325\n        /* \"#utility.yul\":12774:12780   */\n      dup5\n        /* \"#utility.yul\":12732:12781   */\n      tag_169\n      jump\t// in\n    tag_325:\n        /* \"#utility.yul\":12716:12782   */\n      tag_168\n      jump\t// in\n    tag_324:\n        /* \"#utility.yul\":12707:12782   */\n      swap1\n      pop\n        /* \"#utility.yul\":12805:12811   */\n      dup3\n        /* \"#utility.yul\":12798:12803   */\n      dup2\n        /* \"#utility.yul\":12791:12812   */\n      mstore\n        /* \"#utility.yul\":12843:12847   */\n      0x20\n        /* \"#utility.yul\":12836:12841   */\n      dup2\n        /* \"#utility.yul\":12832:12848   */\n      add\n        /* \"#utility.yul\":12881:12884   */\n      dup5\n        /* \"#utility.yul\":12872:12878   */\n      dup5\n        /* \"#utility.yul\":12867:12870   */\n      dup5\n        /* \"#utility.yul\":12863:12879   */\n      add\n        /* \"#utility.yul\":12860:12885   */\n      gt\n        /* \"#utility.yul\":12857:12969   */\n      iszero\n      tag_326\n      jumpi\n        /* \"#utility.yul\":12888:12967   */\n      tag_327\n      tag_165\n      jump\t// in\n    tag_327:\n        /* \"#utility.yul\":12857:12969   */\n    tag_326:\n        /* \"#utility.yul\":12978:13030   */\n      tag_328\n        /* \"#utility.yul\":13023:13029   */\n      dup5\n        /* \"#utility.yul\":13018:13021   */\n      dup3\n        /* \"#utility.yul\":13013:13016   */\n      dup6\n        /* \"#utility.yul\":12978:13030   */\n      tag_161\n      jump\t// in\n    tag_328:\n        /* \"#utility.yul\":12697:13036   */\n      pop\n        /* \"#utility.yul\":12602:13036   */\n      swap4\n      swap3\n      pop\n      pop\n      pop\n      jump\t// out\n        /* \"#utility.yul\":13056:13411   */\n    tag_188:\n        /* \"#utility.yul\":13123:13128   */\n      0x00\n        /* \"#utility.yul\":13172:13175   */\n      dup3\n        /* \"#utility.yul\":13165:13169   */\n      0x1f\n        /* \"#utility.yul\":13157:13163   */\n      dup4\n        /* \"#utility.yul\":13153:13170   */\n      add\n        /* \"#utility.yul\":13149:13176   */\n      slt\n        /* \"#utility.yul\":13139:13261   */\n      tag_330\n      jumpi\n        /* \"#utility.yul\":13180:13259   */\n      tag_331\n      tag_164\n      jump\t// in\n    tag_331:\n        /* \"#utility.yul\":13139:13261   */\n    tag_330:\n        /* \"#utility.yul\":13290:13296   */\n      dup2\n        /* \"#utility.yul\":13284:13297   */\n      mload\n        /* \"#utility.yul\":13315:13405   */\n      tag_332\n        /* \"#utility.yul\":13401:13404   */\n      dup5\n        /* \"#utility.yul\":13393:13399   */\n      dup3\n        /* \"#utility.yul\":13386:13390   */\n      0x20\n        /* \"#utility.yul\":13378:13384   */\n      dup7\n        /* \"#utility.yul\":13374:13391   */\n      add\n        /* \"#utility.yul\":13315:13405   */\n      tag_187\n      jump\t// in\n    tag_332:\n        /* \"#utility.yul\":13306:13405   */\n      swap2\n      pop\n        /* \"#utility.yul\":13129:13411   */\n      pop\n        /* \"#utility.yul\":13056:13411   */\n      swap3\n      swap2\n      pop\n      pop\n      jump\t// out\n        /* \"#utility.yul\":13417:13941   */\n    tag_148:\n        /* \"#utility.yul\":13497:13503   */\n      0x00\n        /* \"#utility.yul\":13546:13548   */\n      0x20\n        /* \"#utility.yul\":13534:13543   */\n      dup3\n        /* \"#utility.yul\":13525:13532   */\n      dup5\n        /* \"#utility.yul\":13521:13544   */\n      sub\n        /* \"#utility.yul\":13517:13549   */\n      slt\n        /* \"#utility.yul\":13514:13633   */\n      iszero\n      tag_334\n      jumpi\n        /* \"#utility.yul\":13552:13631   */\n      tag_335\n      tag_155\n      jump\t// in\n    tag_335:\n        /* \"#utility.yul\":13514:13633   */\n    tag_334:\n        /* \"#utility.yul\":13693:13694   */\n      0x00\n        /* \"#utility.yul\":13682:13691   */\n      dup3\n        /* \"#utility.yul\":13678:13695   */\n      add\n        /* \"#utility.yul\":13672:13696   */\n      mload\n        /* \"#utility.yul\":13723:13741   */\n      0xffffffffffffffff\n        /* \"#utility.yul\":13715:13721   */\n      dup2\n        /* \"#utility.yul\":13712:13742   */\n      gt\n        /* \"#utility.yul\":13709:13826   */\n      iszero\n      tag_336\n      jumpi\n        /* \"#utility.yul\":13745:13824   */\n      tag_337\n      tag_156\n      jump\t// in\n    tag_337:\n        /* \"#utility.yul\":13709:13826   */\n    tag_336:\n        /* \"#utility.yul\":13850:13924   */\n      tag_338\n        /* \"#utility.yul\":13916:13923   */\n      dup5\n        /* \"#utility.yul\":13907:13913   */\n      dup3\n        /* \"#utility.yul\":13896:13905   */\n      dup6\n        /* \"#utility.yul\":13892:13914   */\n      add\n        /* \"#utility.yul\":13850:13924   */\n      tag_188\n      jump\t// in\n    tag_338:\n        /* \"#utility.yul\":13840:13924   */\n      swap2\n      pop\n        /* \"#utility.yul\":13643:13934   */\n      pop\n        /* \"#utility.yul\":13417:13941   */\n      swap3\n      swap2\n      pop\n      pop\n      jump\t// out\n    stop\n    data_907d0dba1fdcf9c5b2a93aa10c761a8e91611cd0f5c7cf0b6cb1a30c441ffad6 546869732066756e6374696f6e20697320616e2065787465726e616c2066756e6374696f6e\n\n    auxdata: 0xa2646970667358221220c62e4e504150c116ec6ab0fd4f7339150d9d73f2a529febf5f2bec6a942054c364736f6c634300081a0033\n}\n",
				"bytecode": {
					"linkReferences": {},
					"object": "6080604052348015600e575f80fd5b50610f0c8061001c5f395ff3fe608060405234801561000f575f80fd5b506004361061011f575f3560e01c80639e7a13ad116100ab578063c19d93fb1161006f578063c19d93fb146102d0578063c96cea70146102ee578063cb6a33f81461031e578063db5ecc031461034e578063e0819c9a1461037e5761011f565b80639e7a13ad1461023f578063a621d15e14610270578063a7e1a3641461028e578063b6339418146102aa578063bca353be146102c65761011f565b80636ef7b0a9116100f25780636ef7b0a9146101ad5780636f760f41146101cb5780638701f8ca146101e75780638bab8dd5146102055780638fda356d146102355761011f565b80630cd2636e1461012357806322f3e2d41461014157806329cd1d961461015f5780633a32b5491461018f575b5f80fd5b61012b61039c565b60405161013891906107a6565b60405180910390f35b6101496103d8565b60405161015691906107d9565b60405180910390f35b6101796004803603810190610174919061082d565b610413565b60405161018691906107a6565b60405180910390f35b610197610433565b6040516101a491906108c8565b60405180910390f35b6101b5610453565b6040516101c291906107a6565b60405180910390f35b6101e560048036038101906101e09190610a14565b610459565b005b6101ef610480565b6040516101fc91906108c8565b60405180910390f35b61021f600480360381019061021a9190610a6e565b61048f565b60405161022c91906107a6565b60405180910390f35b61023d6104bc565b005b6102596004803603810190610254919061082d565b6104e7565b604051610267929190610ab5565b60405180910390f35b61027861059c565b60405161028591906107a6565b60405180910390f35b6102a860048036038101906102a3919061082d565b6105a4565b005b6102c460048036038101906102bf919061082d565b6105cd565b005b6102ce61060d565b005b6102d8610639565b6040516102e59190610b56565b60405180910390f35b61030860048036038101906103039190610a6e565b61064b565b60405161031591906108c8565b60405180910390f35b6103386004803603810190610333919061082d565b61068d565b60405161034591906107d9565b60405180910390f35b61036860048036038101906103639190610bcc565b6106a9565b60405161037591906108c8565b60405180910390f35b6103866106da565b60405161039391906108c8565b60405180910390f35b5f805f90505f600190505b5f5481116103d05780826103bb9190610c44565b915080806103c890610c77565b9150506103a7565b508091505090565b5f8060018111156103ec576103eb610ae3565b5b60055f9054906101000a900460ff16600181111561040d5761040c610ae3565b5b14905090565b60018181548110610422575f80fd5b905f5260205f20015f915090505481565b6060604051806060016040528060258152602001610eb260259139905090565b60025481565b8060038360405161046a9190610cf8565b9081526020016040518091039020819055505050565b606061048a610751565b905090565b6003818051602081018201805184825260208301602085012081835280955050505050505f915090505481565b5f60055f6101000a81548160ff021916908360018111156104e0576104df610ae3565b5b0217905550565b600481815481106104f6575f80fd5b905f5260205f2090600202015f91509050805f01805461051590610d3b565b80601f016020809104026020016040519081016040528092919081815260200182805461054190610d3b565b801561058c5780601f106105635761010080835404028352916020019161058c565b820191905f5260205f20905b81548152906001019060200180831161056f57829003601f168201915b5050505050908060010154905082565b5f8054905090565b600181908060018154018082558091505060019003905f5260205f20015f909190919091505550565b805f819055507f939f2783f4b99373bd9b6912aff8f7316ea141b98eb02e47c8a96bdae0d654b38160405161060291906107a6565b60405180910390a150565b600160055f6101000a81548160ff0219169083600181111561063257610631610ae3565b5b0217905550565b60055f9054906101000a900460ff1681565b60606040518060400160405280600481526020017f6b757369000000000000000000000000000000000000000000000000000000008152509150819050919050565b5f815f5411156106a057600190506106a4565b5f90505b919050565b60605f83836040516020016106bf929190610dd9565b60405160208183030381529060405290508091505092915050565b60603073ffffffffffffffffffffffffffffffffffffffff16633a32b5496040518163ffffffff1660e01b81526004015f60405180830381865afa158015610724573d5f803e3d5ffd5b505050506040513d5f823e3d601f19601f8201168201806040525081019061074c9190610e6a565b905090565b60606040518060400160405280601581526020017f4920616d206c656172696e6720736f6c69646974790000000000000000000000815250905090565b5f819050919050565b6107a08161078e565b82525050565b5f6020820190506107b95f830184610797565b92915050565b5f8115159050919050565b6107d3816107bf565b82525050565b5f6020820190506107ec5f8301846107ca565b92915050565b5f604051905090565b5f80fd5b5f80fd5b61080c8161078e565b8114610816575f80fd5b50565b5f8135905061082781610803565b92915050565b5f60208284031215610842576108416107fb565b5b5f61084f84828501610819565b91505092915050565b5f81519050919050565b5f82825260208201905092915050565b8281835e5f83830152505050565b5f601f19601f8301169050919050565b5f61089a82610858565b6108a48185610862565b93506108b4818560208601610872565b6108bd81610880565b840191505092915050565b5f6020820190508181035f8301526108e08184610890565b905092915050565b5f80fd5b5f80fd5b7f4e487b71000000000000000000000000000000000000000000000000000000005f52604160045260245ffd5b61092682610880565b810181811067ffffffffffffffff82111715610945576109446108f0565b5b80604052505050565b5f6109576107f2565b9050610963828261091d565b919050565b5f67ffffffffffffffff821115610982576109816108f0565b5b61098b82610880565b9050602081019050919050565b828183375f83830152505050565b5f6109b86109b384610968565b61094e565b9050828152602081018484840111156109d4576109d36108ec565b5b6109df848285610998565b509392505050565b5f82601f8301126109fb576109fa6108e8565b5b8135610a0b8482602086016109a6565b91505092915050565b5f8060408385031215610a2a57610a296107fb565b5b5f83013567ffffffffffffffff811115610a4757610a466107ff565b5b610a53858286016109e7565b9250506020610a6485828601610819565b9150509250929050565b5f60208284031215610a8357610a826107fb565b5b5f82013567ffffffffffffffff811115610aa057610a9f6107ff565b5b610aac848285016109e7565b91505092915050565b5f6040820190508181035f830152610acd8185610890565b9050610adc6020830184610797565b9392505050565b7f4e487b71000000000000000000000000000000000000000000000000000000005f52602160045260245ffd5b60028110610b2157610b20610ae3565b5b50565b5f819050610b3182610b10565b919050565b5f610b4082610b24565b9050919050565b610b5081610b36565b82525050565b5f602082019050610b695f830184610b47565b92915050565b5f80fd5b5f80fd5b5f8083601f840112610b8c57610b8b6108e8565b5b8235905067ffffffffffffffff811115610ba957610ba8610b6f565b5b602083019150836001820283011115610bc557610bc4610b73565b5b9250929050565b5f8060208385031215610be257610be16107fb565b5b5f83013567ffffffffffffffff811115610bff57610bfe6107ff565b5b610c0b85828601610b77565b92509250509250929050565b7f4e487b71000000000000000000000000000000000000000000000000000000005f52601160045260245ffd5b5f610c4e8261078e565b9150610c598361078e565b9250828201905080821115610c7157610c70610c17565b5b92915050565b5f610c818261078e565b91507fffffffffffffffffffffffffffffffffffffffffffffffffffffffffffffffff8203610cb357610cb2610c17565b5b600182019050919050565b5f81905092915050565b5f610cd282610858565b610cdc8185610cbe565b9350610cec818560208601610872565b80840191505092915050565b5f610d038284610cc8565b915081905092915050565b7f4e487b71000000000000000000000000000000000000000000000000000000005f52602260045260245ffd5b5f6002820490506001821680610d5257607f821691505b602082108103610d6557610d64610d0e565b5b50919050565b7f48656c6c6f2000000000000000000000000000000000000000000000000000005f82015250565b5f610d9f600683610cbe565b9150610daa82610d6b565b600682019050919050565b5f610dc08385610cbe565b9350610dcd838584610998565b82840190509392505050565b5f610de382610d93565b9150610df0828486610db5565b91508190509392505050565b5f610e0e610e0984610968565b61094e565b905082815260208101848484011115610e2a57610e296108ec565b5b610e35848285610872565b509392505050565b5f82601f830112610e5157610e506108e8565b5b8151610e61848260208601610dfc565b91505092915050565b5f60208284031215610e7f57610e7e6107fb565b5b5f82015167ffffffffffffffff811115610e9c57610e9b6107ff565b5b610ea884828501610e3d565b9150509291505056fe546869732066756e6374696f6e20697320616e2065787465726e616c2066756e6374696f6ea2646970667358221220c62e4e504150c116ec6ab0fd4f7339150d9d73f2a529febf5f2bec6a942054c364736f6c634300081a0033",
					"opcodes": "PUSH1 0x80 PUSH1 0x40 MSTORE CALLVALUE DUP1 ISZERO PUSH1 0xE JUMPI PUSH0 DUP1 REVERT JUMPDEST POP PUSH2 0xF0C DUP1 PUSH2 0x1C PUSH0 CODECOPY PUSH0 RETURN INVALID PUSH1 0x80 PUSH1 0x40 MSTORE CALLVALUE DUP1 ISZERO PUSH2 0xF JUMPI PUSH0 DUP1 REVERT JUMPDEST POP PUSH1 0x4 CALLDATASIZE LT PUSH2 0x11F JUMPI PUSH0 CALLDATALOAD PUSH1 0xE0 SHR DUP1 PUSH4 0x9E7A13AD GT PUSH2 0xAB JUMPI DUP1 PUSH4 0xC19D93FB GT PUSH2 0x6F JUMPI DUP1 PUSH4 0xC19D93FB EQ PUSH2 0x2D0 JUMPI DUP1 PUSH4 0xC96CEA70 EQ PUSH2 0x2EE JUMPI DUP1 PUSH4 0xCB6A33F8 EQ PUSH2 0x31E JUMPI DUP1 PUSH4 0xDB5ECC03 EQ PUSH2 0x34E JUMPI DUP1 PUSH4 0xE0819C9A EQ PUSH2 0x37E JUMPI PUSH2 0x11F JUMP JUMPDEST DUP1 PUSH4 0x9E7A13AD EQ PUSH2 0x23F JUMPI DUP1 PUSH4 0xA621D15E EQ PUSH2 0x270 JUMPI DUP1 PUSH4 0xA7E1A364 EQ PUSH2 0x28E JUMPI DUP1 PUSH4 0xB6339418 EQ PUSH2 0x2AA JUMPI DUP1 PUSH4 0xBCA353BE EQ PUSH2 0x2C6 JUMPI PUSH2 0x11F JUMP JUMPDEST DUP1 PUSH4 0x6EF7B0A9 GT PUSH2 0xF2 JUMPI DUP1 PUSH4 0x6EF7B0A9 EQ PUSH2 0x1AD JUMPI DUP1 PUSH4 0x6F760F41 EQ PUSH2 0x1CB JUMPI DUP1 PUSH4 0x8701F8CA EQ PUSH2 0x1E7 JUMPI DUP1 PUSH4 0x8BAB8DD5 EQ PUSH2 0x205 JUMPI DUP1 PUSH4 0x8FDA356D EQ PUSH2 0x235 JUMPI PUSH2 0x11F JUMP JUMPDEST DUP1 PUSH4 0xCD2636E EQ PUSH2 0x123 JUMPI DUP1 PUSH4 0x22F3E2D4 EQ PUSH2 0x141 JUMPI DUP1 PUSH4 0x29CD1D96 EQ PUSH2 0x15F JUMPI DUP1 PUSH4 0x3A32B549 EQ PUSH2 0x18F JUMPI JUMPDEST PUSH0 DUP1 REVERT JUMPDEST PUSH2 0x12B PUSH2 0x39C JUMP JUMPDEST PUSH1 0x40 MLOAD PUSH2 0x138 SWAP2 SWAP1 PUSH2 0x7A6 JUMP JUMPDEST PUSH1 0x40 MLOAD DUP1 SWAP2 SUB SWAP1 RETURN JUMPDEST PUSH2 0x149 PUSH2 0x3D8 JUMP JUMPDEST PUSH1 0x40 MLOAD PUSH2 0x156 SWAP2 SWAP1 PUSH2 0x7D9 JUMP JUMPDEST PUSH1 0x40 MLOAD DUP1 SWAP2 SUB SWAP1 RETURN JUMPDEST PUSH2 0x179 PUSH1 0x4 DUP1 CALLDATASIZE SUB DUP2 ADD SWAP1 PUSH2 0x174 SWAP2 SWAP1 PUSH2 0x82D JUMP JUMPDEST PUSH2 0x413 JUMP JUMPDEST PUSH1 0x40 MLOAD PUSH2 0x186 SWAP2 SWAP1 PUSH2 0x7A6 JUMP JUMPDEST PUSH1 0x40 MLOAD DUP1 SWAP2 SUB SWAP1 RETURN JUMPDEST PUSH2 0x197 PUSH2 0x433 JUMP JUMPDEST PUSH1 0x40 MLOAD PUSH2 0x1A4 SWAP2 SWAP1 PUSH2 0x8C8 JUMP JUMPDEST PUSH1 0x40 MLOAD DUP1 SWAP2 SUB SWAP1 RETURN JUMPDEST PUSH2 0x1B5 PUSH2 0x453 JUMP JUMPDEST PUSH1 0x40 MLOAD PUSH2 0x1C2 SWAP2 SWAP1 PUSH2 0x7A6 JUMP JUMPDEST PUSH1 0x40 MLOAD DUP1 SWAP2 SUB SWAP1 RETURN JUMPDEST PUSH2 0x1E5 PUSH1 0x4 DUP1 CALLDATASIZE SUB DUP2 ADD SWAP1 PUSH2 0x1E0 SWAP2 SWAP1 PUSH2 0xA14 JUMP JUMPDEST PUSH2 0x459 JUMP JUMPDEST STOP JUMPDEST PUSH2 0x1EF PUSH2 0x480 JUMP JUMPDEST PUSH1 0x40 MLOAD PUSH2 0x1FC SWAP2 SWAP1 PUSH2 0x8C8 JUMP JUMPDEST PUSH1 0x40 MLOAD DUP1 SWAP2 SUB SWAP1 RETURN JUMPDEST PUSH2 0x21F PUSH1 0x4 DUP1 CALLDATASIZE SUB DUP2 ADD SWAP1 PUSH2 0x21A SWAP2 SWAP1 PUSH2 0xA6E JUMP JUMPDEST PUSH2 0x48F JUMP JUMPDEST PUSH1 0x40 MLOAD PUSH2 0x22C SWAP2 SWAP1 PUSH2 0x7A6 JUMP JUMPDEST PUSH1 0x40 MLOAD DUP1 SWAP2 SUB SWAP1 RETURN JUMPDEST PUSH2 0x23D PUSH2 0x4BC JUMP JUMPDEST STOP JUMPDEST PUSH2 0x259 PUSH1 0x4 DUP1 CALLDATASIZE SUB DUP2 ADD SWAP1 PUSH2 0x254 SWAP2 SWAP1 PUSH2 0x82D JUMP JUMPDEST PUSH2 0x4E7 JUMP JUMPDEST PUSH1 0x40 MLOAD PUSH2 0x267 SWAP3 SWAP2 SWAP1 PUSH2 0xAB5 JUMP JUMPDEST PUSH1 0x40 MLOAD DUP1 SWAP2 SUB SWAP1 RETURN JUMPDEST PUSH2 0x278 PUSH2 0x59C JUMP JUMPDEST PUSH1 0x40 MLOAD PUSH2 0x285 SWAP2 SWAP1 PUSH2 0x7A6 JUMP JUMPDEST PUSH1 0x40 MLOAD DUP1 SWAP2 SUB SWAP1 RETURN JUMPDEST PUSH2 0x2A8 PUSH1 0x4 DUP1 CALLDATASIZE SUB DUP2 ADD SWAP1 PUSH2 0x2A3 SWAP2 SWAP1 PUSH2 0x82D JUMP JUMPDEST PUSH2 0x5A4 JUMP JUMPDEST STOP JUMPDEST PUSH2 0x2C4 PUSH1 0x4 DUP1 CALLDATASIZE SUB DUP2 ADD SWAP1 PUSH2 0x2BF SWAP2 SWAP1 PUSH2 0x82D JUMP JUMPDEST PUSH2 0x5CD JUMP JUMPDEST STOP JUMPDEST PUSH2 0x2CE PUSH2 0x60D JUMP JUMPDEST STOP JUMPDEST PUSH2 0x2D8 PUSH2 0x639 JUMP JUMPDEST PUSH1 0x40 MLOAD PUSH2 0x2E5 SWAP2 SWAP1 PUSH2 0xB56 JUMP JUMPDEST PUSH1 0x40 MLOAD DUP1 SWAP2 SUB SWAP1 RETURN JUMPDEST PUSH2 0x308 PUSH1 0x4 DUP1 CALLDATASIZE SUB DUP2 ADD SWAP1 PUSH2 0x303 SWAP2 SWAP1 PUSH2 0xA6E JUMP JUMPDEST PUSH2 0x64B JUMP JUMPDEST PUSH1 0x40 MLOAD PUSH2 0x315 SWAP2 SWAP1 PUSH2 0x8C8 JUMP JUMPDEST PUSH1 0x40 MLOAD DUP1 SWAP2 SUB SWAP1 RETURN JUMPDEST PUSH2 0x338 PUSH1 0x4 DUP1 CALLDATASIZE SUB DUP2 ADD SWAP1 PUSH2 0x333 SWAP2 SWAP1 PUSH2 0x82D JUMP JUMPDEST PUSH2 0x68D JUMP JUMPDEST PUSH1 0x40 MLOAD PUSH2 0x345 SWAP2 SWAP1 PUSH2 0x7D9 JUMP JUMPDEST PUSH1 0x40 MLOAD DUP1 SWAP2 SUB SWAP1 RETURN JUMPDEST PUSH2 0x368 PUSH1 0x4 DUP1 CALLDATASIZE SUB DUP2 ADD SWAP1 PUSH2 0x363 SWAP2 SWAP1 PUSH2 0xBCC JUMP JUMPDEST PUSH2 0x6A9 JUMP JUMPDEST PUSH1 0x40 MLOAD PUSH2 0x375 SWAP2 SWAP1 PUSH2 0x8C8 JUMP JUMPDEST PUSH1 0x40 MLOAD DUP1 SWAP2 SUB SWAP1 RETURN JUMPDEST PUSH2 0x386 PUSH2 0x6DA JUMP JUMPDEST PUSH1 0x40 MLOAD PUSH2 0x393 SWAP2 SWAP1 PUSH2 0x8C8 JUMP JUMPDEST PUSH1 0x40 MLOAD DUP1 SWAP2 SUB SWAP1 RETURN JUMPDEST PUSH0 DUP1 PUSH0 SWAP1 POP PUSH0 PUSH1 0x1 SWAP1 POP JUMPDEST PUSH0 SLOAD DUP2 GT PUSH2 0x3D0 JUMPI DUP1 DUP3 PUSH2 0x3BB SWAP2 SWAP1 PUSH2 0xC44 JUMP JUMPDEST SWAP2 POP DUP1 DUP1 PUSH2 0x3C8 SWAP1 PUSH2 0xC77 JUMP JUMPDEST SWAP2 POP POP PUSH2 0x3A7 JUMP JUMPDEST POP DUP1 SWAP2 POP POP SWAP1 JUMP JUMPDEST PUSH0 DUP1 PUSH1 0x1 DUP2 GT ISZERO PUSH2 0x3EC JUMPI PUSH2 0x3EB PUSH2 0xAE3 JUMP JUMPDEST JUMPDEST PUSH1 0x5 PUSH0 SWAP1 SLOAD SWAP1 PUSH2 0x100 EXP SWAP1 DIV PUSH1 0xFF AND PUSH1 0x1 DUP2 GT ISZERO PUSH2 0x40D JUMPI PUSH2 0x40C PUSH2 0xAE3 JUMP JUMPDEST JUMPDEST EQ SWAP1 POP SWAP1 JUMP JUMPDEST PUSH1 0x1 DUP2 DUP2 SLOAD DUP2 LT PUSH2 0x422 JUMPI PUSH0 DUP1 REVERT JUMPDEST SWAP1 PUSH0 MSTORE PUSH1 0x20 PUSH0 KECCAK256 ADD PUSH0 SWAP2 POP SWAP1 POP SLOAD DUP2 JUMP JUMPDEST PUSH1 0x60 PUSH1 0x40 MLOAD DUP1 PUSH1 0x60 ADD PUSH1 0x40 MSTORE DUP1 PUSH1 0x25 DUP2 MSTORE PUSH1 0x20 ADD PUSH2 0xEB2 PUSH1 0x25 SWAP2 CODECOPY SWAP1 POP SWAP1 JUMP JUMPDEST PUSH1 0x2 SLOAD DUP2 JUMP JUMPDEST DUP1 PUSH1 0x3 DUP4 PUSH1 0x40 MLOAD PUSH2 0x46A SWAP2 SWAP1 PUSH2 0xCF8 JUMP JUMPDEST SWAP1 DUP2 MSTORE PUSH1 0x20 ADD PUSH1 0x40 MLOAD DUP1 SWAP2 SUB SWAP1 KECCAK256 DUP2 SWAP1 SSTORE POP POP POP JUMP JUMPDEST PUSH1 0x60 PUSH2 0x48A PUSH2 0x751 JUMP JUMPDEST SWAP1 POP SWAP1 JUMP JUMPDEST PUSH1 0x3 DUP2 DUP1 MLOAD PUSH1 0x20 DUP2 ADD DUP3 ADD DUP1 MLOAD DUP5 DUP3 MSTORE PUSH1 0x20 DUP4 ADD PUSH1 0x20 DUP6 ADD KECCAK256 DUP2 DUP4 MSTORE DUP1 SWAP6 POP POP POP POP POP POP PUSH0 SWAP2 POP SWAP1 POP SLOAD DUP2 JUMP JUMPDEST PUSH0 PUSH1 0x5 PUSH0 PUSH2 0x100 EXP DUP2 SLOAD DUP2 PUSH1 0xFF MUL NOT AND SWAP1 DUP4 PUSH1 0x1 DUP2 GT ISZERO PUSH2 0x4E0 JUMPI PUSH2 0x4DF PUSH2 0xAE3 JUMP JUMPDEST JUMPDEST MUL OR SWAP1 SSTORE POP JUMP JUMPDEST PUSH1 0x4 DUP2 DUP2 SLOAD DUP2 LT PUSH2 0x4F6 JUMPI PUSH0 DUP1 REVERT JUMPDEST SWAP1 PUSH0 MSTORE PUSH1 0x20 PUSH0 KECCAK256 SWAP1 PUSH1 0x2 MUL ADD PUSH0 SWAP2 POP SWAP1 POP DUP1 PUSH0 ADD DUP1 SLOAD PUSH2 0x515 SWAP1 PUSH2 0xD3B JUMP JUMPDEST DUP1 PUSH1 0x1F ADD PUSH1 0x20 DUP1 SWAP2 DIV MUL PUSH1 0x20 ADD PUSH1 0x40 MLOAD SWAP1 DUP2 ADD PUSH1 0x40 MSTORE DUP1 SWAP3 SWAP2 SWAP1 DUP2 DUP2 MSTORE PUSH1 0x20 ADD DUP3 DUP1 SLOAD PUSH2 0x541 SWAP1 PUSH2 0xD3B JUMP JUMPDEST DUP1 ISZERO PUSH2 0x58C JUMPI DUP1 PUSH1 0x1F LT PUSH2 0x563 JUMPI PUSH2 0x100 DUP1 DUP4 SLOAD DIV MUL DUP4 MSTORE SWAP2 PUSH1 0x20 ADD SWAP2 PUSH2 0x58C JUMP JUMPDEST DUP3 ADD SWAP2 SWAP1 PUSH0 MSTORE PUSH1 0x20 PUSH0 KECCAK256 SWAP1 JUMPDEST DUP2 SLOAD DUP2 MSTORE SWAP1 PUSH1 0x1 ADD SWAP1 PUSH1 0x20 ADD DUP1 DUP4 GT PUSH2 0x56F JUMPI DUP3 SWAP1 SUB PUSH1 0x1F AND DUP3 ADD SWAP2 JUMPDEST POP POP POP POP POP SWAP1 DUP1 PUSH1 0x1 ADD SLOAD SWAP1 POP DUP3 JUMP JUMPDEST PUSH0 DUP1 SLOAD SWAP1 POP SWAP1 JUMP JUMPDEST PUSH1 0x1 DUP2 SWAP1 DUP1 PUSH1 0x1 DUP2 SLOAD ADD DUP1 DUP3 SSTORE DUP1 SWAP2 POP POP PUSH1 0x1 SWAP1 SUB SWAP1 PUSH0 MSTORE PUSH1 0x20 PUSH0 KECCAK256 ADD PUSH0 SWAP1 SWAP2 SWAP1 SWAP2 SWAP1 SWAP2 POP SSTORE POP JUMP JUMPDEST DUP1 PUSH0 DUP2 SWAP1 SSTORE POP PUSH32 0x939F2783F4B99373BD9B6912AFF8F7316EA141B98EB02E47C8A96BDAE0D654B3 DUP2 PUSH1 0x40 MLOAD PUSH2 0x602 SWAP2 SWAP1 PUSH2 0x7A6 JUMP JUMPDEST PUSH1 0x40 MLOAD DUP1 SWAP2 SUB SWAP1 LOG1 POP JUMP JUMPDEST PUSH1 0x1 PUSH1 0x5 PUSH0 PUSH2 0x100 EXP DUP2 SLOAD DUP2 PUSH1 0xFF MUL NOT AND SWAP1 DUP4 PUSH1 0x1 DUP2 GT ISZERO PUSH2 0x632 JUMPI PUSH2 0x631 PUSH2 0xAE3 JUMP JUMPDEST JUMPDEST MUL OR SWAP1 SSTORE POP JUMP JUMPDEST PUSH1 0x5 PUSH0 SWAP1 SLOAD SWAP1 PUSH2 0x100 EXP SWAP1 DIV PUSH1 0xFF AND DUP2 JUMP JUMPDEST PUSH1 0x60 PUSH1 0x40 MLOAD DUP1 PUSH1 0x40 ADD PUSH1 0x40 MSTORE DUP1 PUSH1 0x4 DUP2 MSTORE PUSH1 0x20 ADD PUSH32 0x6B75736900000000000000000000000000000000000000000000000000000000 DUP2 MSTORE POP SWAP2 POP DUP2 SWAP1 POP SWAP2 SWAP1 POP JUMP JUMPDEST PUSH0 DUP2 PUSH0 SLOAD GT ISZERO PUSH2 0x6A0 JUMPI PUSH1 0x1 SWAP1 POP PUSH2 0x6A4 JUMP JUMPDEST PUSH0 SWAP1 POP JUMPDEST SWAP2 SWAP1 POP JUMP JUMPDEST PUSH1 0x60 PUSH0 DUP4 DUP4 PUSH1 0x40 MLOAD PUSH1 0x20 ADD PUSH2 0x6BF SWAP3 SWAP2 SWAP1 PUSH2 0xDD9 JUMP JUMPDEST PUSH1 0x40 MLOAD PUSH1 0x20 DUP2 DUP4 SUB SUB DUP2 MSTORE SWAP1 PUSH1 0x40 MSTORE SWAP1 POP DUP1 SWAP2 POP POP SWAP3 SWAP2 POP POP JUMP JUMPDEST PUSH1 0x60 ADDRESS PUSH20 0xFFFFFFFFFFFFFFFFFFFFFFFFFFFFFFFFFFFFFFFF AND PUSH4 0x3A32B549 PUSH1 0x40 MLOAD DUP2 PUSH4 0xFFFFFFFF AND PUSH1 0xE0 SHL DUP2 MSTORE PUSH1 0x4 ADD PUSH0 PUSH1 0x40 MLOAD DUP1 DUP4 SUB DUP2 DUP7 GAS STATICCALL ISZERO DUP1 ISZERO PUSH2 0x724 JUMPI RETURNDATASIZE PUSH0 DUP1 RETURNDATACOPY RETURNDATASIZE PUSH0 REVERT JUMPDEST POP POP POP POP PUSH1 0x40 MLOAD RETURNDATASIZE PUSH0 DUP3 RETURNDATACOPY RETURNDATASIZE PUSH1 0x1F NOT PUSH1 0x1F DUP3 ADD AND DUP3 ADD DUP1 PUSH1 0x40 MSTORE POP DUP2 ADD SWAP1 PUSH2 0x74C SWAP2 SWAP1 PUSH2 0xE6A JUMP JUMPDEST SWAP1 POP SWAP1 JUMP JUMPDEST PUSH1 0x60 PUSH1 0x40 MLOAD DUP1 PUSH1 0x40 ADD PUSH1 0x40 MSTORE DUP1 PUSH1 0x15 DUP2 MSTORE PUSH1 0x20 ADD PUSH32 0x4920616D206C656172696E6720736F6C69646974790000000000000000000000 DUP2 MSTORE POP SWAP1 POP SWAP1 JUMP JUMPDEST PUSH0 DUP2 SWAP1 POP SWAP2 SWAP1 POP JUMP JUMPDEST PUSH2 0x7A0 DUP2 PUSH2 0x78E JUMP JUMPDEST DUP3 MSTORE POP POP JUMP JUMPDEST PUSH0 PUSH1 0x20 DUP3 ADD SWAP1 POP PUSH2 0x7B9 PUSH0 DUP4 ADD DUP5 PUSH2 0x797 JUMP JUMPDEST SWAP3 SWAP2 POP POP JUMP JUMPDEST PUSH0 DUP2 ISZERO ISZERO SWAP1 POP SWAP2 SWAP1 POP JUMP JUMPDEST PUSH2 0x7D3 DUP2 PUSH2 0x7BF JUMP JUMPDEST DUP3 MSTORE POP POP JUMP JUMPDEST PUSH0 PUSH1 0x20 DUP3 ADD SWAP1 POP PUSH2 0x7EC PUSH0 DUP4 ADD DUP5 PUSH2 0x7CA JUMP JUMPDEST SWAP3 SWAP2 POP POP JUMP JUMPDEST PUSH0 PUSH1 0x40 MLOAD SWAP1 POP SWAP1 JUMP JUMPDEST PUSH0 DUP1 REVERT JUMPDEST PUSH0 DUP1 REVERT JUMPDEST PUSH2 0x80C DUP2 PUSH2 0x78E JUMP JUMPDEST DUP2 EQ PUSH2 0x816 JUMPI PUSH0 DUP1 REVERT JUMPDEST POP JUMP JUMPDEST PUSH0 DUP2 CALLDATALOAD SWAP1 POP PUSH2 0x827 DUP2 PUSH2 0x803 JUMP JUMPDEST SWAP3 SWAP2 POP POP JUMP JUMPDEST PUSH0 PUSH1 0x20 DUP3 DUP5 SUB SLT ISZERO PUSH2 0x842 JUMPI PUSH2 0x841 PUSH2 0x7FB JUMP JUMPDEST JUMPDEST PUSH0 PUSH2 0x84F DUP5 DUP3 DUP6 ADD PUSH2 0x819 JUMP JUMPDEST SWAP2 POP POP SWAP3 SWAP2 POP POP JUMP JUMPDEST PUSH0 DUP2 MLOAD SWAP1 POP SWAP2 SWAP1 POP JUMP JUMPDEST PUSH0 DUP3 DUP3 MSTORE PUSH1 0x20 DUP3 ADD SWAP1 POP SWAP3 SWAP2 POP POP JUMP JUMPDEST DUP3 DUP2 DUP4 MCOPY PUSH0 DUP4 DUP4 ADD MSTORE POP POP POP JUMP JUMPDEST PUSH0 PUSH1 0x1F NOT PUSH1 0x1F DUP4 ADD AND SWAP1 POP SWAP2 SWAP1 POP JUMP JUMPDEST PUSH0 PUSH2 0x89A DUP3 PUSH2 0x858 JUMP JUMPDEST PUSH2 0x8A4 DUP2 DUP6 PUSH2 0x862 JUMP JUMPDEST SWAP4 POP PUSH2 0x8B4 DUP2 DUP6 PUSH1 0x20 DUP7 ADD PUSH2 0x872 JUMP JUMPDEST PUSH2 0x8BD DUP2 PUSH2 0x880 JUMP JUMPDEST DUP5 ADD SWAP2 POP POP SWAP3 SWAP2 POP POP JUMP JUMPDEST PUSH0 PUSH1 0x20 DUP3 ADD SWAP1 POP DUP2 DUP2 SUB PUSH0 DUP4 ADD MSTORE PUSH2 0x8E0 DUP2 DUP5 PUSH2 0x890 JUMP JUMPDEST SWAP1 POP SWAP3 SWAP2 POP POP JUMP JUMPDEST PUSH0 DUP1 REVERT JUMPDEST PUSH0 DUP1 REVERT JUMPDEST PUSH32 0x4E487B7100000000000000000000000000000000000000000000000000000000 PUSH0 MSTORE PUSH1 0x41 PUSH1 0x4 MSTORE PUSH1 0x24 PUSH0 REVERT JUMPDEST PUSH2 0x926 DUP3 PUSH2 0x880 JUMP JUMPDEST DUP2 ADD DUP2 DUP2 LT PUSH8 0xFFFFFFFFFFFFFFFF DUP3 GT OR ISZERO PUSH2 0x945 JUMPI PUSH2 0x944 PUSH2 0x8F0 JUMP JUMPDEST JUMPDEST DUP1 PUSH1 0x40 MSTORE POP POP POP JUMP JUMPDEST PUSH0 PUSH2 0x957 PUSH2 0x7F2 JUMP JUMPDEST SWAP1 POP PUSH2 0x963 DUP3 DUP3 PUSH2 0x91D JUMP JUMPDEST SWAP2 SWAP1 POP JUMP JUMPDEST PUSH0 PUSH8 0xFFFFFFFFFFFFFFFF DUP3 GT ISZERO PUSH2 0x982 JUMPI PUSH2 0x981 PUSH2 0x8F0 JUMP JUMPDEST JUMPDEST PUSH2 0x98B DUP3 PUSH2 0x880 JUMP JUMPDEST SWAP1 POP PUSH1 0x20 DUP2 ADD SWAP1 POP SWAP2 SWAP1 POP JUMP JUMPDEST DUP3 DUP2 DUP4 CALLDATACOPY PUSH0 DUP4 DUP4 ADD MSTORE POP POP POP JUMP JUMPDEST PUSH0 PUSH2 0x9B8 PUSH2 0x9B3 DUP5 PUSH2 0x968 JUMP JUMPDEST PUSH2 0x94E JUMP JUMPDEST SWAP1 POP DUP3 DUP2 MSTORE PUSH1 0x20 DUP2 ADD DUP5 DUP5 DUP5 ADD GT ISZERO PUSH2 0x9D4 JUMPI PUSH2 0x9D3 PUSH2 0x8EC JUMP JUMPDEST JUMPDEST PUSH2 0x9DF DUP5 DUP3 DUP6 PUSH2 0x998 JUMP JUMPDEST POP SWAP4 SWAP3 POP POP POP JUMP JUMPDEST PUSH0 DUP3 PUSH1 0x1F DUP4 ADD SLT PUSH2 0x9FB JUMPI PUSH2 0x9FA PUSH2 0x8E8 JUMP JUMPDEST JUMPDEST DUP2 CALLDATALOAD PUSH2 0xA0B DUP5 DUP3 PUSH1 0x20 DUP7 ADD PUSH2 0x9A6 JUMP JUMPDEST SWAP2 POP POP SWAP3 SWAP2 POP POP JUMP JUMPDEST PUSH0 DUP1 PUSH1 0x40 DUP4 DUP6 SUB SLT ISZERO PUSH2 0xA2A JUMPI PUSH2 0xA29 PUSH2 0x7FB JUMP JUMPDEST JUMPDEST PUSH0 DUP4 ADD CALLDATALOAD PUSH8 0xFFFFFFFFFFFFFFFF DUP2 GT ISZERO PUSH2 0xA47 JUMPI PUSH2 0xA46 PUSH2 0x7FF JUMP JUMPDEST JUMPDEST PUSH2 0xA53 DUP6 DUP3 DUP7 ADD PUSH2 0x9E7 JUMP JUMPDEST SWAP3 POP POP PUSH1 0x20 PUSH2 0xA64 DUP6 DUP3 DUP7 ADD PUSH2 0x819 JUMP JUMPDEST SWAP2 POP POP SWAP3 POP SWAP3 SWAP1 POP JUMP JUMPDEST PUSH0 PUSH1 0x20 DUP3 DUP5 SUB SLT ISZERO PUSH2 0xA83 JUMPI PUSH2 0xA82 PUSH2 0x7FB JUMP JUMPDEST JUMPDEST PUSH0 DUP3 ADD CALLDATALOAD PUSH8 0xFFFFFFFFFFFFFFFF DUP2 GT ISZERO PUSH2 0xAA0 JUMPI PUSH2 0xA9F PUSH2 0x7FF JUMP JUMPDEST JUMPDEST PUSH2 0xAAC DUP5 DUP3 DUP6 ADD PUSH2 0x9E7 JUMP JUMPDEST SWAP2 POP POP SWAP3 SWAP2 POP POP JUMP JUMPDEST PUSH0 PUSH1 0x40 DUP3 ADD SWAP1 POP DUP2 DUP2 SUB PUSH0 DUP4 ADD MSTORE PUSH2 0xACD DUP2 DUP6 PUSH2 0x890 JUMP JUMPDEST SWAP1 POP PUSH2 0xADC PUSH1 0x20 DUP4 ADD DUP5 PUSH2 0x797 JUMP JUMPDEST SWAP4 SWAP3 POP POP POP JUMP JUMPDEST PUSH32 0x4E487B7100000000000000000000000000000000000000000000000000000000 PUSH0 MSTORE PUSH1 0x21 PUSH1 0x4 MSTORE PUSH1 0x24 PUSH0 REVERT JUMPDEST PUSH1 0x2 DUP2 LT PUSH2 0xB21 JUMPI PUSH2 0xB20 PUSH2 0xAE3 JUMP JUMPDEST JUMPDEST POP JUMP JUMPDEST PUSH0 DUP2 SWAP1 POP PUSH2 0xB31 DUP3 PUSH2 0xB10 JUMP JUMPDEST SWAP2 SWAP1 POP JUMP JUMPDEST PUSH0 PUSH2 0xB40 DUP3 PUSH2 0xB24 JUMP JUMPDEST SWAP1 POP SWAP2 SWAP1 POP JUMP JUMPDEST PUSH2 0xB50 DUP2 PUSH2 0xB36 JUMP JUMPDEST DUP3 MSTORE POP POP JUMP JUMPDEST PUSH0 PUSH1 0x20 DUP3 ADD SWAP1 POP PUSH2 0xB69 PUSH0 DUP4 ADD DUP5 PUSH2 0xB47 JUMP JUMPDEST SWAP3 SWAP2 POP POP JUMP JUMPDEST PUSH0 DUP1 REVERT JUMPDEST PUSH0 DUP1 REVERT JUMPDEST PUSH0 DUP1 DUP4 PUSH1 0x1F DUP5 ADD SLT PUSH2 0xB8C JUMPI PUSH2 0xB8B PUSH2 0x8E8 JUMP JUMPDEST JUMPDEST DUP3 CALLDATALOAD SWAP1 POP PUSH8 0xFFFFFFFFFFFFFFFF DUP2 GT ISZERO PUSH2 0xBA9 JUMPI PUSH2 0xBA8 PUSH2 0xB6F JUMP JUMPDEST JUMPDEST PUSH1 0x20 DUP4 ADD SWAP2 POP DUP4 PUSH1 0x1 DUP3 MUL DUP4 ADD GT ISZERO PUSH2 0xBC5 JUMPI PUSH2 0xBC4 PUSH2 0xB73 JUMP JUMPDEST JUMPDEST SWAP3 POP SWAP3 SWAP1 POP JUMP JUMPDEST PUSH0 DUP1 PUSH1 0x20 DUP4 DUP6 SUB SLT ISZERO PUSH2 0xBE2 JUMPI PUSH2 0xBE1 PUSH2 0x7FB JUMP JUMPDEST JUMPDEST PUSH0 DUP4 ADD CALLDATALOAD PUSH8 0xFFFFFFFFFFFFFFFF DUP2 GT ISZERO PUSH2 0xBFF JUMPI PUSH2 0xBFE PUSH2 0x7FF JUMP JUMPDEST JUMPDEST PUSH2 0xC0B DUP6 DUP3 DUP7 ADD PUSH2 0xB77 JUMP JUMPDEST SWAP3 POP SWAP3 POP POP SWAP3 POP SWAP3 SWAP1 POP JUMP JUMPDEST PUSH32 0x4E487B7100000000000000000000000000000000000000000000000000000000 PUSH0 MSTORE PUSH1 0x11 PUSH1 0x4 MSTORE PUSH1 0x24 PUSH0 REVERT JUMPDEST PUSH0 PUSH2 0xC4E DUP3 PUSH2 0x78E JUMP JUMPDEST SWAP2 POP PUSH2 0xC59 DUP4 PUSH2 0x78E JUMP JUMPDEST SWAP3 POP DUP3 DUP3 ADD SWAP1 POP DUP1 DUP3 GT ISZERO PUSH2 0xC71 JUMPI PUSH2 0xC70 PUSH2 0xC17 JUMP JUMPDEST JUMPDEST SWAP3 SWAP2 POP POP JUMP JUMPDEST PUSH0 PUSH2 0xC81 DUP3 PUSH2 0x78E JUMP JUMPDEST SWAP2 POP PUSH32 0xFFFFFFFFFFFFFFFFFFFFFFFFFFFFFFFFFFFFFFFFFFFFFFFFFFFFFFFFFFFFFFFF DUP3 SUB PUSH2 0xCB3 JUMPI PUSH2 0xCB2 PUSH2 0xC17 JUMP JUMPDEST JUMPDEST PUSH1 0x1 DUP3 ADD SWAP1 POP SWAP2 SWAP1 POP JUMP JUMPDEST PUSH0 DUP2 SWAP1 POP SWAP3 SWAP2 POP POP JUMP JUMPDEST PUSH0 PUSH2 0xCD2 DUP3 PUSH2 0x858 JUMP JUMPDEST PUSH2 0xCDC DUP2 DUP6 PUSH2 0xCBE JUMP JUMPDEST SWAP4 POP PUSH2 0xCEC DUP2 DUP6 PUSH1 0x20 DUP7 ADD PUSH2 0x872 JUMP JUMPDEST DUP1 DUP5 ADD SWAP2 POP POP SWAP3 SWAP2 POP POP JUMP JUMPDEST PUSH0 PUSH2 0xD03 DUP3 DUP5 PUSH2 0xCC8 JUMP JUMPDEST SWAP2 POP DUP2 SWAP1 POP SWAP3 SWAP2 POP POP JUMP JUMPDEST PUSH32 0x4E487B7100000000000000000000000000000000000000000000000000000000 PUSH0 MSTORE PUSH1 0x22 PUSH1 0x4 MSTORE PUSH1 0x24 PUSH0 REVERT JUMPDEST PUSH0 PUSH1 0x2 DUP3 DIV SWAP1 POP PUSH1 0x1 DUP3 AND DUP1 PUSH2 0xD52 JUMPI PUSH1 0x7F DUP3 AND SWAP2 POP JUMPDEST PUSH1 0x20 DUP3 LT DUP2 SUB PUSH2 0xD65 JUMPI PUSH2 0xD64 PUSH2 0xD0E JUMP JUMPDEST JUMPDEST POP SWAP2 SWAP1 POP JUMP JUMPDEST PUSH32 0x48656C6C6F200000000000000000000000000000000000000000000000000000 PUSH0 DUP3 ADD MSTORE POP JUMP JUMPDEST PUSH0 PUSH2 0xD9F PUSH1 0x6 DUP4 PUSH2 0xCBE JUMP JUMPDEST SWAP2 POP PUSH2 0xDAA DUP3 PUSH2 0xD6B JUMP JUMPDEST PUSH1 0x6 DUP3 ADD SWAP1 POP SWAP2 SWAP1 POP JUMP JUMPDEST PUSH0 PUSH2 0xDC0 DUP4 DUP6 PUSH2 0xCBE JUMP JUMPDEST SWAP4 POP PUSH2 0xDCD DUP4 DUP6 DUP5 PUSH2 0x998 JUMP JUMPDEST DUP3 DUP5 ADD SWAP1 POP SWAP4 SWAP3 POP POP POP JUMP JUMPDEST PUSH0 PUSH2 0xDE3 DUP3 PUSH2 0xD93 JUMP JUMPDEST SWAP2 POP PUSH2 0xDF0 DUP3 DUP5 DUP7 PUSH2 0xDB5 JUMP JUMPDEST SWAP2 POP DUP2 SWAP1 POP SWAP4 SWAP3 POP POP POP JUMP JUMPDEST PUSH0 PUSH2 0xE0E PUSH2 0xE09 DUP5 PUSH2 0x968 JUMP JUMPDEST PUSH2 0x94E JUMP JUMPDEST SWAP1 POP DUP3 DUP2 MSTORE PUSH1 0x20 DUP2 ADD DUP5 DUP5 DUP5 ADD GT ISZERO PUSH2 0xE2A JUMPI PUSH2 0xE29 PUSH2 0x8EC JUMP JUMPDEST JUMPDEST PUSH2 0xE35 DUP5 DUP3 DUP6 PUSH2 0x872 JUMP JUMPDEST POP SWAP4 SWAP3 POP POP POP JUMP JUMPDEST PUSH0 DUP3 PUSH1 0x1F DUP4 ADD SLT PUSH2 0xE51 JUMPI PUSH2 0xE50 PUSH2 0x8E8 JUMP JUMPDEST JUMPDEST DUP2 MLOAD PUSH2 0xE61 DUP5 DUP3 PUSH1 0x20 DUP7 ADD PUSH2 0xDFC JUMP JUMPDEST SWAP2 POP POP SWAP3 SWAP2 POP POP JUMP JUMPDEST PUSH0 PUSH1 0x20 DUP3 DUP5 SUB SLT ISZERO PUSH2 0xE7F JUMPI PUSH2 0xE7E PUSH2 0x7FB JUMP JUMPDEST JUMPDEST PUSH0 DUP3 ADD MLOAD PUSH8 0xFFFFFFFFFFFFFFFF DUP2 GT ISZERO PUSH2 0xE9C JUMPI PUSH2 0xE9B PUSH2 0x7FF JUMP JUMPDEST JUMPDEST PUSH2 0xEA8 DUP5 DUP3 DUP6 ADD PUSH2 0xE3D JUMP JUMPDEST SWAP2 POP POP SWAP3 SWAP2 POP POP JUMP INVALID SLOAD PUSH9 0x69732066756E637469 PUSH16 0x6E20697320616E2065787465726E616C KECCAK256 PUSH7 0x756E6374696F6E LOG2 PUSH5 0x6970667358 0x22 SLT KECCAK256 0xC6 0x2E 0x4E POP COINBASE POP 0xC1 AND 0xEC PUSH11 0xB0FD4F7339150D9D73F2A5 0x29 INVALID 0xBF PUSH0 0x2B 0xEC PUSH11 0x942054C364736F6C634300 ADDMOD BYTE STOP CALLER "
				},
				"gasEstimates": {
					"creation": {
						"codeDepositCost": "770400",
						"executionCost": "803",
						"totalCost": "771203"
					},
					"external": {
						"activateContract()": "24539",
						"addFavoriteNumber(uint256)": "46888",
						"addPerson(string,uint256)": "infinite",
						"callInternalFunction()": "infinite",
						"deactivateContract()": "24540",
						"externalFunction()": "infinite",
						"favoriteNumbers(uint256)": "infinite",
						"getFavoriteNumber()": "2477",
						"greetUser(string)": "infinite",
						"isActive()": "2577",
						"isGreaterThan(uint256)": "2801",
						"nameToFavoriteNumber(string)": "infinite",
						"neverAFavoriteNumber()": "2448",
						"people(uint256)": "infinite",
						"state()": "2576",
						"storeNumber(uint256)": "infinite",
						"sumToFavoriteNumber()": "infinite",
						"testExternalFunction()": "infinite",
						"updateUsername(string)": "infinite"
					},
					"internal": {
						"internalFunction()": "infinite"
					}
				},
				"methodIdentifiers": {
					"activateContract()": "8fda356d",
					"addFavoriteNumber(uint256)": "a7e1a364",
					"addPerson(string,uint256)": "6f760f41",
					"callInternalFunction()": "8701f8ca",
					"deactivateContract()": "bca353be",
					"externalFunction()": "3a32b549",
					"favoriteNumbers(uint256)": "29cd1d96",
					"getFavoriteNumber()": "a621d15e",
					"greetUser(string)": "db5ecc03",
					"isActive()": "22f3e2d4",
					"isGreaterThan(uint256)": "cb6a33f8",
					"nameToFavoriteNumber(string)": "8bab8dd5",
					"neverAFavoriteNumber()": "6ef7b0a9",
					"people(uint256)": "9e7a13ad",
					"state()": "c19d93fb",
					"storeNumber(uint256)": "b6339418",
					"sumToFavoriteNumber()": "0cd2636e",
					"testExternalFunction()": "e0819c9a",
					"updateUsername(string)": "c96cea70"
				}
			},
			"storageLayout": {
				"storage": [
					{
						"astId": 3,
						"contract": "SimpleStorage.sol:SimpleStorage",
						"label": "favoriteNumber",
						"offset": 0,
						"slot": "0",
						"type": "t_uint256"
					},
					{
						"astId": 6,
						"contract": "SimpleStorage.sol:SimpleStorage",
						"label": "favoriteNumbers",
						"offset": 0,
						"slot": "1",
						"type": "t_array(t_uint256)dyn_storage"
					},
					{
						"astId": 8,
						"contract": "SimpleStorage.sol:SimpleStorage",
						"label": "neverAFavoriteNumber",
						"offset": 0,
						"slot": "2",
						"type": "t_uint256"
					},
					{
						"astId": 12,
						"contract": "SimpleStorage.sol:SimpleStorage",
						"label": "nameToFavoriteNumber",
						"offset": 0,
						"slot": "3",
						"type": "t_mapping(t_string_memory_ptr,t_uint256)"
					},
					{
						"astId": 25,
						"contract": "SimpleStorage.sol:SimpleStorage",
						"label": "people",
						"offset": 0,
						"slot": "4",
						"type": "t_array(t_struct(Person)21_storage)dyn_storage"
					},
					{
						"astId": 31,
						"contract": "SimpleStorage.sol:SimpleStorage",
						"label": "state",
						"offset": 0,
						"slot": "5",
						"type": "t_enum(ContractState)28"
					}
				],
				"types": {
					"t_array(t_struct(Person)21_storage)dyn_storage": {
						"base": "t_struct(Person)21_storage",
						"encoding": "dynamic_array",
						"label": "struct SimpleStorage.Person[]",
						"numberOfBytes": "32"
					},
					"t_array(t_uint256)dyn_storage": {
						"base": "t_uint256",
						"encoding": "dynamic_array",
						"label": "uint256[]",
						"numberOfBytes": "32"
					},
					"t_enum(ContractState)28": {
						"encoding": "inplace",
						"label": "enum SimpleStorage.ContractState",
						"numberOfBytes": "1"
					},
					"t_mapping(t_string_memory_ptr,t_uint256)": {
						"encoding": "mapping",
						"key": "t_string_memory_ptr",
						"label": "mapping(string => uint256)",
						"numberOfBytes": "32",
						"value": "t_uint256"
					},
					"t_string_memory_ptr": {
						"encoding": "bytes",
						"label": "string",
						"numberOfBytes": "32"
					},
					"t_string_storage": {
						"encoding": "bytes",
						"label": "string",
						"numberOfBytes": "32"
					},
					"t_struct(Person)21_storage": {
						"encoding": "inplace",
						"label": "struct SimpleStorage.Person",
						"members": [
							{
								"astId": 18,
								"contract": "SimpleStorage.sol:SimpleStorage",
								"label": "name",
								"offset": 0,
								"slot": "0",
								"type": "t_string_storage"
							},
							{
								"astId": 20,
								"contract": "SimpleStorage.sol:SimpleStorage",
								"label": "favoriteNumber",
								"offset": 0,
								"slot": "1",
								"type": "t_uint256"
							}
						],
						"numberOfBytes": "64"
					},
					"t_uint256": {
						"encoding": "inplace",
						"label": "uint256",
						"numberOfBytes": "32"
					}
				}
			},
			"userdoc": {
				"kind": "user",
				"methods": {},
				"version": 1
			}
		}
	}
}